:0200000280007C
:1000000068310720194C0800114C0800114C0800F9
:10001000114C0800114C0800114C080000000000B1
:10002000000000000000000000000000114C08006B
:10003000114C080000000000114C0800114C080091
:10004000114C0800114C0800114C0800114C08001C
:10005000114C0800114C0800114C0800114C08000C
:10006000114C0800114C0800000000000D4608006B
:10007000254608003D4608005546080000000000DF
:1000800000000000114C0800114C0800114C080041
:10009000114C0800114C0800114C0800114C0800CC
:1000A000114C080000000000114C0800114C080021
:1000B000114C0800114C0800114C0800114C0800AC
:1000C000114C0800114C0800114C0800114C08009C
:1000D000114C0800114C0800114C0800114C08008C
:1000E000114C0800114C0800114C0800495408003C
:1000F0002954080010B5054C237833B9044B13B1CB
:100100000448AFF300800123237010BDD8090720F5
:1001100000000000288308000C4B43B10C4810B5C8
:100120000C49AFF300800C48036823B910BD0A489E
:10013000036833B97047094B002BF7D0BDE8104076
:100140001847064B002BF5D0184700BF00000000F1
:1001500028830800DC09072028830800000000002D
:1001600080B582B000AF78607B68072B31D801A2E0
:1001700052F823F0D1010800950108009D01080004
:10018000A5010800AD010800B5010800BD01080087
:10019000C70108000020114B98471AE001200F4BBF
:1001A000984716E000200E4B984712E010200C4BA9
:1001B00098470EE020200A4B98470AE03E21002095
:1001C000084B984705E03E210120064B984700E088
:1001D00000BF00BF0837BD4680BD00BFED46080028
:1001E00059470800C947080080B582B000AF786061
:1001F0007B68072B26D801A252F823F01D020800C5
:10020000210208002102080033020800330208001E
:10021000330208003302080033020800012312E011
:100220000B4B98470346002B14BF01230023DBB27E
:1002300009E0084B98470346002B14BF0123002315
:10024000DBB200E0002318460837BD4680BD00BF82
:10025000254708004148080080B483B000AF7860AB
:100260007B68072B25D801A252F823F08D020800E5
:1002700093020800990208009F020800A3020800E8
:10028000A7020800AB020800AF0208004FF4FA43CF
:1002900010E04FF400430DE04FF400430AE0084B38
:1002A00008E0084B06E0084B04E0074B02E0064B71
:1002B00000E0002318460C37BD4680BC704700BFE5
:1002C00000093D0000127A00001BB70080B582B023
:1002D00000AF0346FB7100BFFB791846054B9847FA
:1002E000034683F00103DBB2002BF5D100BF0837D2
:1002F000BD4680BDE901080080B586B000AFF8605A
:100300007A603B600B46FB727B68002B07D13B6831
:10031000002B04D1FB684FF470021A6019E0FB7ADD
:1003200018460E4B984702467B68B2FBF3F37B619D
:100330007B693A6802FB03F37B613B68013B1A046B
:10034000074B13407A68D2B2134343F47C52FB68E4
:100350001A6000BF1837BD4680BD00BF59020800B3
:100360000000FF0780B582B000AF786039603B685D
:10037000002B08D1094B9847094A7B681B6843F05A
:100380000053936205E0064A7B681B6843F48033A0
:10039000D36100BF0837BD4680BD00BF5948080083
:1003A00000060E4080B582B000AF78607B68002BFD
:1003B00003D1054B9847034602E0044B9847034698
:1003C00018460837BD4680BD7148080089480800B6
:1003D00080B582B000AF0346FB71FB79033B042B71
:1003E00008D8FB791846064B9847FB791846054B09
:1003F000984700E000BF00BF0837BD4680BD00BF82
:1004000061010800CD02080080B582B000AF7860BD
:1004100000BF7868044B98470346002BF9D00023AF
:1004200018460837BD4680BDA503080080B500AF5B
:100430000620044B984702461346DB009B1A5B00DC
:10044000184680BD5902080080B500AF024B98479E
:1004500003465B08184680BD2D04080090B583B0A4
:1004600000AF1148114B98470620114B9847381D93
:100470000E23012206210F4CA0473B1D00211846E8
:100480000D4B984700200D4B984710200C4B984778
:100490000C4B98470C4B984703461846034B98471C
:1004A00000BF0C37BD4690BD00BD0105D10007203F
:1004B000D1030800F90208006503080009040800D8
:1004C0006D460800C14C08004904080080B586B09C
:1004D00000AFF860B9607A6000237B61FB68002B95
:1004E00012D04FF0FF3313E00B4B1B680B4A12681E
:1004F000B96810469847BB680133BB607B6901331C
:100500007B617B68013B7B607B68002BECDC7B695B
:1005100018461837BD4680BD540C07205C0C0720D8
:1005200080B586B000AFF860B9607A6000237B6167
:10053000FB68012B1ED0FB68022B1BD0FB68032B32
:1005400018D04FF0FF3319E00E4B1A680E4B1868A5
:10055000BB68591CB9601B78194690470346002BAD
:1005600002DA4FF0FF3309E07B6901337B617B687E
:10057000013B7B607B68002BE6D17B69184618370E
:10058000BD4680BD580C07205C0C072080B582B0AA
:1005900000AF78607868034B984700BF0837BD46C6
:1005A00080BD00BFA148080080B500AF0B20064BFE
:1005B00098470C20044B98470D20034B98470E207A
:1005C000014B984700BF80BD8D05080080B500AF86
:1005D0001B4B4FF400425A601A4B98474FF0605142
:1005E0005720194B98474FF060513B20164B9847C6
:1005F0004FF060515520144B98474FF060515620F2
:10060000114B98474FF000624FF440710F48104B68
:1006100098474FF0006101200B4B98474FF0006165
:100620000020094B98474FF000612F20064B984758
:100630004FF000612E20044B984700BF80BD00BFE3
:10064000501A0E40A905080019430800000E0E407C
:100650005144080080B584B000AF78603960002351
:10066000FB7306E0FB7B1846094B9847FB7B013385
:10067000FB73FB7B0C2BF5D9064A7B68C2F8A430D0
:10068000044A3B68C2F8B43000BF1037BD4680BD95
:1006900099060800F409072080B584B000AF03462E
:1006A000FB71FB791B01064A134401211846054BD7
:1006B00098470346FB7300BF1037BD4680BD00BF9F
:1006C000F4090720F159080080B582B000AF034655
:1006D0003960FB71FB791B01054A13441846054B31
:1006E000984702463B681A6000BF0837BD4680BD88
:1006F000F40907202D5A080080B58AB000AFF860D1
:10070000B9607A607B6846F2A81202FB03F2BB680C
:1007100013445A1E7B6846F2A81101FB03F3B2FB97
:10072000F3F3802B01D9002386E0BB685A087B686D
:100730004FF4FA5101FB03F39A4201D200237BE00C
:10074000082387F827304FF0FF333B620823FB77FD
:100750002AE0FB7F7A6802FB03F34FF47A7202FB14
:1007600003F3BA68B2FBF3F3802B1AD8FB7F7A68E5
:1007700002FB03F34FF47A7202FB03F2BB68B3FB94
:10078000F2F102FB01F29B1ABB61BA693B6A9A4221
:1007900007D2BB693B62FB7F87F827303B6A002B9F
:1007A00006D0FB7F0133FB77FB7F192BD1D900E00B
:1007B00000BF97F827307A6802FB03F34FF47A7290
:1007C00002FB03F3BA68B2FBF3F3FB75FB7D012B6D
:1007D00001D8002330E097F82730A3F10802134630
:1007E0005B0013445B00164A13443B61F868154BE9
:1007F00098473B69DB78013B03F007023B699B7834
:10080000013B1B0103F070031A433B695B78013B1A
:100810001B0203F4E0631A433B691B79013B1B0392
:1008200003F440531A43FB7D013B1B0403F4FE0316
:100830001A43FB685A61012318462837BD4680BD1C
:10084000188008000F09080080B588B000AFF86074
:10085000B9607A6000237B6107E01E4A7B69002152
:1008600042F823107B6901337B617B69082BF4DD3F
:100870007A68B968F868184B9847F861FB69002BEB
:1008800001D1002321E0F868144B9847F868144B15
:1008900098470023FB610023BB6106E0F868114B19
:1008A0009847F861BB690133BB61FB6903F400132E
:1008B000002B03D1BB690C4A9342EFD9BB690B4AA9
:1008C000934201D1002300E0012318462037BD46A2
:1008D00080BD00BF100E0720F9060800B10A08000D
:1008E000F1080800610908009F860100A086010048
:1008F00080B483B000AF78607B681B6843F001026E
:100900007B681A6000BF0C37BD4680BC704780B45E
:1009100083B000AF78607B681B6823F001027B68BE
:100920001A6000BF0C37BD4680BC704780B483B0EE
:1009300000AF786039607B683A685A6000BF0C3756
:10094000BD4680BC704780B483B000AF786039602A
:100950007B683A689A6000BF0C37BD4680BC704720
:1009600080B483B000AF78607B681B6918460C3791
:10097000BD4680BC704780B483B000AF78607B68B0
:100980001B6ADBB218460C37BD4680BC704780B48A
:1009900085B000AF786039603B681B68FB733B68CB
:1009A0001B79002B2FD1FB7B7A6810335B0113443A
:1009B00000221A60FB7B7A6810335B011344043316
:1009C00000221A60FB7B7A685B01134403F5027313
:1009D00000221A60FB7B7A685B01134403F5057300
:1009E00000221A60FB7B7A685B01134403F50673EF
:1009F00000221A60FB7B7A685B01134403F50773DE
:100A000000221A6050E0FB7BFA7B796810325201B9
:100A10000A44126822F470223968C97909040A4329
:100A2000796810335B010B441A603B685B79002BDB
:100A300016D0FB7B3A68D26842F0005279681033D6
:100A40005B010B4404331A60FB7B3A68126942F085
:100A5000005279685B010B4403F502731A6011E0E0
:100A6000FB7B3A68D268796810335B010B4404332E
:100A70001A60FB7B3A68126979685B010B4403F5E5
:100A800002731A60FB7BFA7B7968103252010A44C8
:100A9000126822F0E0623968097909060A43796828
:100AA00010335B010B441A601437BD4680BC70479D
:100AB00080B58CB000AF786000233B74002387F8CA
:100AC0002F300DE097F82F30FB6007F10C0319462B
:100AD0007868074B984797F82F30013387F82F3005
:100AE00097F82F30072BEDD900BF3037BD4680BDBA
:100AF0008F09080080B483B000AF78600B46FB70AC
:100B0000FB78072B01D90723FB70FB78FA7879680B
:100B100052010A4402F50772126842F40002796831
:100B20005B010B4403F507731A6000BF0C37BD4629
:100B300080BC704780B58AB000AFF8600B467A6021
:100B4000FB72FB7A072B01D90723FB7200237B6220
:100B5000FB7AFA685B01134403F504731B683B627C
:100B60003B6A03F40003002B06D03B6A03F080735A
:100B7000002B01D002237B62FB7AFA685B011344ED
:100B800003F502731B68FB61FB6903F00053002B44
:100B900008D0FB6923F060427B681A607B68012201
:100BA0009A7208E0FB699B0CC3F30A027B681A6027
:100BB0007B6800229A72FB7AFA685B01134403F5A2
:100BC00003731A687B685A603B6A1B0CDBB203F044
:100BD0000F03DAB27B68DA72FB7AFA685B011344BE
:100BE00003F505731B68BB61FB7AFA685B0113446C
:100BF00003F506731B687B617B687A695A617B68C1
:100C0000BA691A61FB7AFA685B01134403F504734D
:100C10001B683B623B6A03F08073002B03D07B6A46
:100C200043F004037B62FB7A1946F868034B98474C
:100C30007B6A18462837BD4680BD00BFF50A08000C
:100C400080B584B000AF78607B681B69FB60FB688F
:100C500003F00103002B04D0FA6800217868264BCA
:100C60009847FB6803F00203002B04D0FA680121C7
:100C70007868214B9847FB6803F00403002B04D0ED
:100C8000FA68022178681C4B9847FB6803F0080358
:100C9000002B04D0FA6803217868174B9847FB684B
:100CA00003F01003002B04D0FA6804217868124B7B
:100CB0009847FB6803F02003002B04D0FA68052155
:100CC00078680D4B9847FB6803F04003002B04D075
:100CD000FA6806217868084B9847FB6803F08003A0
:100CE000002B04D0FA6807217868034B984700BFAF
:100CF0001037BD4680BD00BFFD0C080090B58DB01B
:100D000000AFF8600B467A60FB72002387F82F3043
:100D1000FB7A072B01D90723FB72FB7AFA685B0188
:100D2000134403F504731B6803F40003002B00F065
:100D30001381FB7AFA6810335B0113441B681B0EA6
:100D400003F00703013B042B00F2068101A252F8D5
:100D500023F000BF690D0800690D08002D0E080082
:100D6000690D0800530F080007F11002FB7A1946BD
:100D7000F8687B4B9847FB687A4A934211D1FB7A1B
:100D8000794A52F82330002B1CD0012387F82F30EA
:100D9000FB7A754A52F8233007F110021046984743
:100DA00010E0FB7A714A52F82330002B0AD001235D
:100DB00087F82F30FB7A6D4A52F8233007F1100282
:100DC0001046984797F82F3083F00103DBB2002BD1
:100DD00000F0C180664B1B889BB201335A4203F07E
:100DE0001F0302F01F0258BF534287F82D3097F8B7
:100DF0002D309AB25F4B1B889BB29A4200F0AB80B9
:100E00005B4B1B889BB21A4613465B001344DB0006
:100E1000594A134407F1100118221846574B9847B6
:100E200097F82D309AB2524B1A8094E0544B1B889D
:100E30009AB2544B1B889BB29A4200F08180504B6F
:100E40001B889BB21946504A0B465B000B44DB00E3
:100E5000134418684A4B1B889BB219464A4A0B46F2
:100E60005B000B44DB0013440A331B78DBB2002B1E
:100E700014BF01230023DBB2F97A0246F868434C21
:100E8000A0473F4B1B889BB219463F4A0B465B006D
:100E90000B44DB0013440B331B78DAB2FB7A1946A0
:100EA000F8683B4B9847364B1B889BB21946364A2D
:100EB0000B465B000B44DB00134409331B78DAB2AA
:100EC000FB7A1946F868334B9847002387F82E3091
:100ED0001AE02B4B1B889BB2184697F82E202A4904
:100EE00003465B000344DB000B44134410331B78C0
:100EF000DBB297F82E20F97AF868274CA04797F8CC
:100F00002E30013387F82E3097F82E30072BE0D99A
:100F1000FB7A012202FA03F3DBB21946F8681F4B91
:100F20009847174B1B889BB201335A4203F00F03BB
:100F300002F00F0258BF53429AB2114B1A800BE0D5
:100F4000FB7A012202FA03F31946F868144B98471A
:100F500002E000BF00E000BF00BF3437BD4690BDD7
:100F6000350B080000400B40100E0720640C0720D2
:100F7000600C0720620C0720380E07206964080007
:100F8000880C072038110720900C07204510080016
:100F900089140800E1140800591108005B150800C5
:100FA0004115080080B485B000AFF8607A601A4639
:100FB0000B46FB721346BB72FB7A072B01D9072342
:100FC000FB72BB7A002B1AD0FB7A7A6842F000528F
:100FD000F96810335B010B4404331A60FB7AFA7A28
:100FE000F96852010A4402F50272126842F0005296
:100FF000F9685B010B4403F502731A601AE0FA7A90
:101000007B6899040E4B0B40F968103252010A4478
:1010100004321360FB7AFA7AF96852010A4402F545
:101020000272126822F00052F9685B010B4403F56A
:1010300002731A6000BF1437BD4680BC704700BF02
:101040000000FC1F80B485B000AFF8607A601A46DB
:101050000B46FB721346BB72FB7A072B01D90723A1
:10106000FB72BB7A002B0AD0FB7A7A6842F00052FE
:10107000F9685B010B4403F502731A600AE0FA7A1F
:101080007B689904064B0B40F96852010A4402F54B
:101090000272136000BF1437BD4680BC704700BFAA
:1010A0000000FC1F80B483B000AF78600B46FB707B
:1010B0001346BB70FB78072B01D90723FB70BB7865
:1010C000052B01D90023BB70FB78FA7879681032C0
:1010D00052010A44126822F0E062B97809060A4314
:1010E000796810335B010B441A6000BF0C37BD46B2
:1010F00080BC704780B483B000AF78600B46FB7053
:10110000FB78072B01D90723FB70FB787A68103333
:101110005B0113441B681B0EDBB203F00703DBB259
:1011200018460C37BD4680BC704780B483B000AF12
:1011300078600B46FB70FB78072B01D90723FB7007
:10114000FB787A685B01134403F504731B68184647
:101150000C37BD4680BC704780B485B000AF786066
:10116000084611461A460346FB700B46BB701346F1
:101170007B70FB78072B01D90723FB70BB78072B0B
:1011800001D90723BB70BB7803F00303DBB2DB009C
:10119000FB73BB78032B1ED8FB787A685B01134482
:1011A00003F505731B68FA7BFF2101FA02F2D243B3
:1011B0001340BB607A78FB7B02FA03F31A46BB68E4
:1011C0001343BB60FB787A685B01134403F5057336
:1011D000BA681A601DE0FB787A685B01134403F576
:1011E00006731B68FA7BFF2101FA02F2D243134017
:1011F000BB607A78FB7B02FA03F31A46BB681343A1
:10120000BB60FB787A685B01134403F50673BA6828
:101210001A6000BF1437BD4680BC704780B483B0ED
:1012200000AF78607B68DB6918460C37BD4680BC30
:10123000704780B483B000AF78600B46FB70FB78DA
:10124000072B01D90723FB70FB787A6810335B0109
:10125000134400221A60FB787A6810335B01134450
:10126000043300221A60FB787A685B01134403F5AB
:10127000027300221A60FB787A685B01134403F55D
:10128000057300221A60FB787A685B01134403F54A
:10129000067300221A60FB787A685B01134403F539
:1012A000077300221A6000BF0C37BD4680BC704730
:1012B00080B584B000AF78600023FB7307E0FB7B50
:1012C00019467868054B9847FB7B0133FB73FB7B22
:1012D000072BF4D900BF1037BD4680BD331208007C
:1012E00090B585B000AF786039600023FB605CE0AA
:1012F0007A68FB6810335B0113441B681B0E03F014
:101300000703032B4ED17A68FB685B01134403F596
:1013100004731B6803F40003002B43D0FB68D9B2AD
:101320003B681A683B689B7A002B14BF012300239B
:10133000DBB278684B4CA047FB68D9B23B68DB7ADC
:101340001A467868484B9847FB68D9B23B685B7A85
:101350001A467868454B98470023FB720CE0FB68FF
:10136000D9B2FB7A3A6813441B7CFA7A7868404C0D
:10137000A047FB7A0133FB72FB7A072BEFD90122DE
:10138000FB6802FA03F3194678683A4B9847012242
:10139000FB6802FA03F3DBB219467868364B9847CC
:1013A00001235AE0FB680133FB60FB68072B9FDDDC
:1013B000324B1B889BB201335A4203F00F0302F0F9
:1013C0000F0258BF5342BB72BB7A9AB22C4B1B8898
:1013D0009BB29A4201D100233FE0284B1B889BB26D
:1013E00018463B681A68274903465B000344DB0044
:1013F0000B441A60214B1B889BB219463B68987AB4
:10140000204A0B465B000B44DB0013440A330246C0
:101410001A701A4B1B889BB219463B68D87A194A36
:101420000B465B000B44DB0013440B3302461A707F
:10143000124B1B889BB21C463B68D3E9041211482F
:1014400023465B002344DB0003441033C3E900124E
:10145000BB7A9AB2094B1A80012318461437BD464D
:1014600090BD00BF4510080089140800E114080071
:1014700059110800271508005B15080038110720CE
:10148000880C0720900C072080B483B000AF7860F0
:101490000B46FB701346BB70FB78072B01D9072363
:1014A000FB70BB78082B01D90823BB70FB78FA7856
:1014B000796852010A4402F50772126822F4702119
:1014C000BA78120402F470220A4379685B010B4473
:1014D00003F507731A6000BF0C37BD4680BC704728
:1014E00080B483B000AF78600B46FB701346BB70CE
:1014F000FB78072B01D90723FB70FB78FA78796812
:10150000103252010A44126822F47022B978090498
:101510000A43796810335B010B441A6000BF0C3733
:10152000BD4680BC704780B483B000AF786039603E
:101530007B683A685A6000BF0C37BD4680BC704774
:1015400080B483B000AF786039607B683A689A6095
:1015500000BF0C37BD4680BC704780B485B000AF7B
:1015600078600B46FB707B685B6A23F0FF03FB60CF
:10157000FA78FB681A437B685A6200BF1437BD468D
:1015800080BC704780B483B000AF786039607B68FE
:10159000002B08DB7B68072B05DC05497B683A6874
:1015A00041F8232000E000BF0C37BD4680BC7047E7
:1015B000100E072090B400AF2D4A4FF000034FF0FB
:1015C0000004C2E904342A4B40F201421A60294A5D
:1015D0004FF000034FF00004C2E90434254B40F201
:1015E00002421A60244A4FF000034FF00004C2E99F
:1015F0000434214B40F203421A60204A4FF00003AA
:101600004FF00004C2E904341C4B40F204421A605B
:101610001B4A4FF000034FF00004C2E90434184B9A
:1016200040F206421A60174A4FF000034FF00004E0
:10163000C2E90434134B40F207421A60124A4FF0D9
:1016400000034FF00004C2E904340F4B4FF48162F1
:101650001A600E4A4FF000034FF00004C2E9043450
:101660000A4B4FF481621A6000BFBD4690BC7047C0
:10167000C80A0720E00A0720F80A0720100B0720F5
:10168000280B0720400B0720580B0720700B072062
:1016900080B584B000AF78601823FB73FB7B1A46DB
:1016A00004497868044B984700BF18461037BD4678
:1016B00080BD00BFC80A07206964080080B584B0F7
:1016C00000AF78601823FB73FB7B1A4604497868E7
:1016D000044B984700BF18461037BD4680BD00BF79
:1016E000E00A07206964080080B584B000AF786024
:1016F0001823FB73FB7B1A4604497868044B984710
:1017000000BF18461037BD4680BD00BFF80A07204D
:101710006964080080B584B000AF78601823FB735B
:10172000FB7B1A4604497868044B984700BF18466B
:101730001037BD4680BD00BF100B0720696408004C
:1017400080B584B000AF78601823FB73FB7B1A462A
:1017500079680448044B984700BF18461037BD46C7
:1017600080BD00BF280B07206964080080B584B0E5
:1017700000AF78601823FB73FB7B1A467968044836
:10178000044B984700BF18461037BD4680BD00BFC8
:10179000580B07206964080080B584B000AF7860FA
:1017A0001823FB73FB7B1A4679680448044B98475F
:1017B00000BF18461037BD4680BD00BF700B072024
:1017C000696408002DE9F04FA5B002AF78620B46BE
:1017D00087F82330134687F822304FF00003FB6769
:1017E000002387F87B304FF00003C7F884300023D4
:1017F00087F87A30002387F88330252387F87930FB
:10180000002387F87830002387F87730002387F8A3
:101810007630002387F87530002387F874307B6AB0
:101820001B68642214491846144B9847034687F8EE
:1018300078307B6ADB696422114918460F4B984760
:10184000034687F877307B6ADB69642219460D48C6
:101850000A4B9847034687F8763097F87830012B83
:1018600007D097F87730012B03D097F87630012B0B
:101870000AD14FF0FF3356E3000020C2F93F0800C1
:101880000000F0C1000020427B6A002B00F046837C
:101890007B6A1A689D4B9E49104698470346002B69
:1018A00002D07A6A9A4B13607B6A1A68994B9A49FC
:1018B000104698470346002B02D07A6A964B136075
:1018C0007B6A1A6897F87A3001930092934B904A9A
:1018D0004FF000019048924CA0470346BB62BA6AA1
:1018E000904B104698470346DBB287F86830D7E93B
:1018F0001A124FF0FF034FF0000403EA010304EA59
:101900000204C7E91A34D7E91A34DBB2864A1374E1
:101910007B6A5A687D4B8549104698470346002BE1
:1019200002D07A6A814B53607B6A5A68794B4FF0D8
:101930000001104698470346002B03D07A6A4FF007
:10194000000353607B6A5A6897F87A3001930092DB
:10195000724B764A4FF000014FF00000704CA047E8
:101960000346BB62BA6A6F4B104698470346DBB228
:1019700087F86030D7E91834260246EA13661D025C
:101980004FF6FF734FF0000403EA050304EA060470
:10199000C7E91834BB6A634A184690470346DBB26E
:1019A000614A53747B6A9B68584A6049184690475D
:1019B0000346002B02D07B6A5C4A9A607B6A9B6874
:1019C000544A4FF00001184690470346002B03D0BD
:1019D0007B6A4FF000029A607B6A9B6897F87A20D6
:1019E000019200934D4B514A4FF000014FF000001F
:1019F0004B4CA0470346BB62BB6A4A4A1846904715
:101A00000346DBB287F85830D7E916344FEA044969
:101A100049EA13494FEA03484FF47F034FF00004AB
:101A200003EA080304EA0904C7E91634BA6A3D4B1D
:101A3000104698470346DAB23B4B9A747B6ADA68E1
:101A4000324B3A49104698470346002B02D07B6A36
:101A5000364ADA607B6ADA682E4B4FF00001104696
:101A600098470346002B03D07B6A4FF00002DA60F0
:101A70007B6ADB6897F87A2001920093274B2B4A08
:101A80004FF000014FF00000254CA0470346BB6219
:101A9000BA6A244B104698470346DBB287F85030A9
:101AA000D7E914344FEA046B4BEA132B4FEA036A6D
:101AB0004FF0FF334FF0000403EA0A0304EA0B047B
:101AC000C7E91434BA6A174B104698470346DAB28E
:101AD000154BDA747B6A1A690C4B14491046984707
:101AE0000346002B02D07B6A104A1A617B6A1A698E
:101AF000084B4FF00001104698470346002B17D0C3
:101B00007B6A4FF000021A6112E000BFC563080053
:101B10000000B44289630800000020C200007F4337
:101B2000093F0800D9630800C80A072000007A446A
:101B30007B6A1B6997F87A20019200936C4B6D4A7F
:101B40004FF000014FF000006B4CA0470346BB6212
:101B5000BA6A6A4B104698470346DBB287F84830AA
:101B6000D7E912341B00FB610023BB614FF0000377
:101B70004FF0FF04D7E9061201EA030102EA04026A
:101B80000B461446C7E91234BA6A5C4B10469847B4
:101B90000346DAB25A4B1A7597F82330002B2AD134
:101BA0007B6A5A69574B5349104698470346002BA6
:101BB00002D07B6A4F4A5A617B6A5A69524B4FF096
:101BC0000001104698470346002B03D07B6A4FF074
:101BD00000025A617B6A5B6997F87A200192009350
:101BE000434B444A4FF000014FF00000424CA047E5
:101BF0000346BB6229E07B6A5A69424B3D49104665
:101C000098470346002B02D07B6A3A4A5A617B6AA6
:101C10005A693D4B4FF00001104698470346002B90
:101C200003D07B6A4FF000025A617B6A5B6997F8C8
:101C30007A20019200932E4B2E4A4FF000014FF074
:101C400000002D4CA0470346BB62BA6A2B4B1046DE
:101C500098470346DBB287F84030D7E910341B02BF
:101C60007B6100233B614FF000034FF47F44D7E9D1
:101C7000041201EA030102EA04020B461446C7E912
:101C80001034BA6A1D4B104698470346DAB21C4B13
:101C90005A7597F82230002B38D17B6A9A69194B14
:101CA0001449104698470346002B02D07B6A114A1C
:101CB0009A617B6A9A69144B4FF00001104698476D
:101CC0000346002B03D07B6A4FF000029A617B6AC7
:101CD0009B6997F87A2001920093054B054A4FF0D3
:101CE00000014FF00000044CA0470346BB6237E000
:101CF00000007F4300007A44093F0800D9630800D0
:101D0000C80A0720C5630800896308007B6A9A69CE
:101D1000874B8849104698470346002B02D07B6AC0
:101D2000844A9A617B6A9A69834B4FF0000110469E
:101D300098470346002B03D07B6A4FF000029A615C
:101D40007B6A9B6997F87A20019200937B4B794AD2
:101D50004FF000014FF00000794CA0470346BB62F2
:101D6000BA6A784B104698470346DBB287F838309A
:101D7000D7E90E341B04FB600023BB604FF0000367
:101D80004FF47F04D7E9021201EA030102EA0402D8
:101D90000B461446C7E90E34BA6A6A4B1046984798
:101DA0000346DAB2684B9A757B6ADB69642267493D
:101DB0001846674B9847034687F875307B6ADB699E
:101DC000642264491846624B9847034687F8783086
:101DD0007B6ADB69642219465F485D4B984703467E
:101DE00087F8773097F87530012B27D17B6ADA694D
:101DF0004F4B5949104698470346002B02D07B6A47
:101E0000554ADA617B6ADA694B4B54491046984768
:101E10000346002B02D07B6A504ADA617B6ADB6999
:101E200097F87A20019200934D4B4B4A4FF00001F6
:101E30004A48434CA047C7F8840054E097F87830EC
:101E4000012B2AD197F87730012B26D17B6ADA69EA
:101E5000374B4449104698470346002B02D07B6A13
:101E60003D4ADA617B6ADA69334B38491046984754
:101E70000346002B02D07B6A344ADA617B6ADB6955
:101E800097F87A2001920093374B364A37492F480A
:101E90002B4CA047C7F8840025E07B6ADA69244B05
:101EA0003349104698470346002B02D07B6A304ADC
:101EB000DA617B6ADA69204B264910469847034667
:101EC000002B02D07B6A234ADA617B6ADB6997F8D0
:101ED0007A2001920093194B254A26491D48184C37
:101EE000A047C7F88400174BD7F8840098470346EB
:101EF000DBB287F83030D7E90C341B067B60002357
:101F00003B60D7E90034C7E90C340E4BD7F88400A6
:101F100098470346DAB20C4BDA7502E0F82387F8EB
:101F2000833097F9833018468C37BD46BDE8F08F73
:101F3000C563080000007A448963080000007F43FD
:101F4000093F0800D9630800C80A07200000A04123
:101F5000F93F080000001442000098410000F0C161
:101F60000000884100001042000041430000904101
:101F700000002042000042432DE9F04F9FB002AF25
:101F80007862002387F86F30002387F86E304FF0B7
:101F90000003BB664FF000037B667B6A002B00F0FA
:101FA0001F837B6A9B8BA04A13827B6A1A689F4BB4
:101FB0009F49104698470346002B02D07A6A9C4BF3
:101FC00013607B6A1A689B4B4FF0000110469847DC
:101FD0000346002B03D07A6A4FF0000313604FF0E2
:101FE00000033B667B6A1A6897F86E300193009293
:101FF0004FF08443904A4FF000014FF000008F4CA7
:10200000A04738664FF000034FF00004C7E91634CC
:102010008B4B386E98470346DBB287F85830D7E9C8
:102020001634E60346EA5346DD034FF478234FF0B7
:10203000000403EA050304EA0604C7E916347A4BF0
:10204000D3E904126FF478234FF0FF3403EA01035D
:1020500004EA0204744AC2E90434734BD3E904125B
:10206000D7E9163443EA010344EA02046E4AC2E99E
:1020700004347B6A5B686D4A724918469047034690
:10208000002B02D07B6A6F4A5A607B6A5B68694AA0
:102090006D49184690470346002B02D07B6A6A4A76
:1020A0005A607B6A5B6897F86E2001920093674BD9
:1020B000644A4FF000016448604CA047B8664FF096
:1020C00000034FF00004C7E914345D4BB86E984725
:1020D0000346DBB287F85030D7E914344FEA04598D
:1020E00049EA13394FEA03584FF0FE634FF00004FA
:1020F00003EA080304EA0904C7E914344A4B03F16C
:102100001004D4E900346FF0FE614FF0FF3203EAAF
:10211000010304EA0204444AC2E90434424BD3E90D
:102120000412D7E9143443EA010344EA02043E4AA4
:10213000C2E904347B6A9A683C4B4249104698478E
:102140000346002B02D07B6A3E4A9A607B6A9A68FB
:10215000384B3D49104698470346002B02D07B6A16
:10216000394A9A607B6A9B6897F86E2001920093C7
:10217000364B344A4FF000013348304CA047B86624
:102180004FF000034FF00004C7E912342C4BB86E37
:1021900098470346DBB287F84830D7E912344FEA54
:1021A000C46B4BEA531B4FEAC36A4FF078434FF0BE
:1021B000030403EA0A0304EA0B04C7E912341A4BC6
:1021C00003F11004D4E900346FF078416FF003029A
:1021D00003EA010304EA0204134AC2E90434124B7D
:1021E000D3E90412D7E9123443EA010344EA0204B2
:1021F0000D4AC2E904347B6ADA680C4B1149104677
:1022000098470346002B02D07B6A0E4ADA607B6A4D
:10221000DA68084B0C49104698470346002B17D044
:102220007B6A094ADA6013E0E00A0720C563080008
:102230000000E041896308000000F041093F080008
:10224000D96308000000B442000020C20000FE4232
:102250007B6ADB6897F86E2001920093A54BA64A33
:102260004FF00001A548A64CA047B8664FF0000308
:102270004FF00004C7E91034A24BB86E98470346EC
:10228000DBB287F84030D7E910349B00FB610023B4
:10229000BB614FF000034FF4FE74D7E9061201EA68
:1022A000030102EA04020B461446C7E91034964BB8
:1022B00003F11004D4E900344FF0FF316FF4FE72E3
:1022C00003EA010304EA02048F4AC2E904348E4B94
:1022D000D3E90412D7E9103443EA010344EA0204C3
:1022E000894AC2E904347B6A1A69884B82491046DC
:1022F00098470346002B02D07B6A7F4A1A617B6AAB
:102300001A69834B7D49104698470346002B02D03B
:102310007B6A7A4A1A617B6A1B6997F86E20019280
:102320000093744B744A4FF000017448744CA047FA
:10233000B8664FF000034FF00004C7E90E34714B4C
:10234000B86E98470346DBB21A46724B1046984760
:10235000714C4FF00002714BA04703460C461946E2
:1023600022466F4B0846114698470346DBB287F872
:102370003830D7E90E345B027B6100233B614FF0BC
:1023800000034FF47E44D7E9041201EA030102EA94
:1023900004020B461446C7E90E345B4B03F11004EC
:1023A000D4E900344FF0FF316FF47E4203EA0103B9
:1023B00004EA0204544AC2E90434534BD3E9041238
:1023C000D7E90E3443EA010344EA02044E4AC2E963
:1023D00004347B6A5A694D4B52491046984703466C
:1023E000002B02D07B6A4F4A5A617B6A5A69484B7C
:1023F0004FF00001104698470346002B03D07B6A3C
:102400004FF000025A617B6A5B6997F86E20019277
:102410000093454B434A4FF000014FF00000384C09
:10242000A04778664FF000034FF00004C7E90C3472
:10243000344B786E98470346DBB21A46354B10464C
:102440009847354C4FF00002344BA04703460C46EA
:1024500019462246324B0846114698470346DBB2DE
:1024600087F83030D7E90C341B04FB600023BB60D5
:102470004FF000034FF47F04D7E9021201EA030191
:1024800002EA04020B461446C7E90C341E4B03F162
:102490001004D4E900344FF0FF316FF47F0203EAF7
:1024A000010304EA0204184AC2E90434164BD3E9D2
:1024B0000412D7E90C3443EA010344EA0204124A45
:1024C000C2E904347B6A9A69104B16491046984752
:1024D0000346002B02D07B6A124A9A617B6A9A6992
:1024E0000B4B4FF00001104698470346002B21D0BC
:1024F0001CE000BF0000FE420000B442000020C209
:10250000093F0800D9630800E00A0720C5630800F6
:1025100089630800D55C08003D5A08000000E03FD0
:10252000F15D080000007A4400007F437B6A4FF0B1
:1025300000029A617B6A9B6997F86E200192009372
:102540002C4B2D4A4FF000014FF000002B4CA047C0
:1025500078664FF000034FF00004C7E90A34284BB7
:10256000786E98470346DBB21A46264B10469847CA
:10257000254C4FF00002254BA04703460C46194658
:102580002246234B0846114698470346DBB287F89C
:102590002830D7E90A341B067B6000233B60D7E96B
:1025A0000034C7E90A341B4B03F11004D4E90034AA
:1025B0004FF0FF316FF07F4203EA010304EA0204A7
:1025C000144AC2E90434134BD3E90412D7E90A349C
:1025D00043EA010344EA02040E4AC2E9043402E079
:1025E000F82387F86F3097F96F3018467437BD4677
:1025F000BDE8F08F00007F4300007A44093F0800E7
:10260000D9630800D55C08003D5A08000000E03F8F
:10261000F15D0800E00A07202DE9F04F9BB002AF02
:10262000F861B961002387F85F30002387F85E30D6
:10263000002387F85D30FB69002B00F06B82824B32
:102640001B7CFA691375804B03F11004D4E9003444
:102650001D0A45EA0465260A4FF0FF034FF0000407
:1026600003EA050304EA0604C7E91434B7F8502066
:10267000764B104698470246FB691A60FB691A6858
:10268000734B7449104698470346002B02D0FB69F0
:10269000704A1A60FB691A686F4B4FF000011046D0
:1026A00098470346002B03D0FB694FF000021A60E5
:1026B000FB691B6897F85E2001920093674B654A9F
:1026C0004FF000014FF00000654CA0470346FB624D
:1026D000FA6AFB691A605C4B03F11004D4E9003418
:1026E0004FEA134848EA04484FEA14494FF0FF0301
:1026F0004FF0000403EA080304EA0904C7E91234AE
:10270000B7F84820514B104698470246FB695A607B
:10271000FB695A684E4B4F49104698470346002BB9
:1027200002D0FB694B4A5A60FB695A684A4B4FF02A
:102730000001104698470346002B03D0FB694FF079
:1027400000025A60FB695B6897F85E200192009373
:10275000424B404A4FF000014FF00000404CA04770
:102760000346FB62FA6AFB695A60374B03F11004B7
:10277000D4E900344FEA136A4AEA042A4FEA146B98
:102780004FF0FF034FF0000403EA0A0304EA0B04CE
:10279000C7E91034B7F840202C4B10469847024642
:1027A000FB699A60FB699A68294B2A491046984749
:1027B0000346002B02D0FB69264A9A60FB699A689F
:1027C000254B4FF00001104698470346002B03D0DD
:1027D000FB694FF000029A60FB699B6897F85E20E6
:1027E000019200931D4B1B4A4FF000014FF0000077
:1027F0001B4CA0470346FB62FA6AFB699A604FF0E4
:1028000000034FF00004C7E908340F4B03F1100434
:10281000D4E9003423003B6100237B614FF00F03B8
:102820004FF00004D7E9041201EA030102EA0402AE
:102830000B461446C7E9083497F820300A2B11D10B
:10284000BB6901221A7010E0280B07209D5F080069
:10285000C563080000007F438963080000007A44D4
:10286000093F0800BB6900221A70844B03F1100471
:10287000D4E900342309BB600023FB604FF0FF0361
:102880004FF00004D7E9021201EA030102EA040250
:102890000B461446C7E90E34BA6B794B104698477D
:1028A0000246FB69DA60FB691B7D03F02003DBB2A3
:1028B000002B2AD0FB69DA68724B7349104698479F
:1028C0000346002B02D0FB696F4ADA60FB69DA68C5
:1028D0006E4B4FF00001104698470346002B03D083
:1028E000FB694FF00002DA60FB69DB6897F85E2055
:1028F00001920093664B644A4FF000014FF00000D4
:10290000644CA0470346FB625EE0FB69DB6864221F
:1029100061491846614B9847034687F85D3097F840
:102920005D30012B29D1FB69DA68564B5C491046B2
:1029300098470346002B02D0FB69594ADA60FB69CD
:10294000DA68524B4FF00001104698470346002BBF
:1029500003D0FB694FF00002DA60FB69DB6897F88F
:102960005E20019200934F4B4D4A4F494FF00000BB
:10297000484CA0470346FB6226E0FB69DA68414BFE
:102980004149104698470346002B02D0FB693E4A56
:10299000DA60FB69DA683D4B3F49104698470346C9
:1029A000002B02D0FB693C4ADA60FB69DB6897F8D0
:1029B0005E20019200934FF00003334A3B493648B2
:1029C000344CA0470346FB62FA6AFB69DA602B4B82
:1029D00003F11004D4E90034230B3B6000237B6037
:1029E00040F2FF334FF00004D7E9001201EA03017F
:1029F00002EA04020B461446C7E90C343A6B204B3A
:102A0000104698470246FB691A61FB691B696422FC
:102A100027491846214B9847034687F85D3097F8B9
:102A20005D30012B4CD1FB691A69164B21491046C8
:102A300098470346002B02D0FB691E4A1A61FB69C6
:102A40001A69124B4FF00001104698470346002BBD
:102A500003D0FB694FF000021A61FB691B6997F80C
:102A60005E2001920093144B124A14494FF000006B
:102A7000084CA0470346FB6248E000BF280B072034
:102A80009D5F0800C563080000007F43896308005C
:102A900000007A44093F080000003041F93F080077
:102AA00000002041000040C0000050C19A9939C088
:102AB00000402A4400002A44000016420000F0C1F1
:102AC000FB691A69184B1949104698470346002BB1
:102AD00002D0FB69154A1A61FB691A69144B154942
:102AE000104698470346002B02D0FB69114A1A6131
:102AF000FB691B6997F85E20019200930E4B0B4A0D
:102B00000E490C480E4CA0470346FB62FA6AFB696B
:102B10001A6102E0F82387F85F3097F95F301846B2
:102B20006437BD46BDE8F08FC563080000C07F4430
:102B30008963080000402A4400002042666616426D
:102B4000093F08002DE9F04F9FB002AFF861002364
:102B500087F86F30002387F86E30FB69002B00F098
:102B6000A382FB691B689F4A9F491846904703460A
:102B7000002B02D0FB699C4A1A60FB691B689B4AC8
:102B80009B49184690470346002B02D0FB69984AA0
:102B90001A60FB691B6897F86E2001920093954BB1
:102BA000914A4FF000019248934CA04703467B6244
:102BB0007B6A7B624FF000034FF00004C7E91834D2
:102BC0007B6A8E4A184690470346DBB287F860302E
:102BD000D7E918124FF0FF034FF0000403EA010396
:102BE00004EA0204C7E91834D7E91834DBB2844A8E
:102BF0001374FB695B687B4A7B4918469047034620
:102C0000002B02D0FB69784A5A60FB695B68774AFF
:102C10007749184690470346002B02D0FB69744A57
:102C20005A60FB695B6897F86E2001920093714BC4
:102C30006D4A4FF000016E486F4CA04703467B621F
:102C40007B6A7B624FF000034FF00004C7E9163443
:102C50007B6A6A4A184690470346DBB287F85830C9
:102C6000D7E91634260246EA13661D024FF6FF73B3
:102C70004FF0000403EA050304EA0604C7E916342A
:102C80007A6A5E4B104698470346DAB25C4B5A7438
:102C9000FB699A68534B4FF0000110469847034672
:102CA000002B03D0FB694FF000029A60FB699A6821
:102CB0004E4B5449104698470346002B02D0FB69FF
:102CC000504A9A60FB699B6897F86E2001920093C6
:102CD000484B4FF000024FF000014A48464CA047D5
:102CE00003467B627B6A7B624FF000034FF0000477
:102CF000C7E914347A6A414B104698470346DBB261
:102D000087F85030D7E914344FEA044949EA1349A7
:102D10004FEA03484FF47F034FF0000403EA08032F
:102D200004EA0904C7E914347A6A344B1046984718
:102D30000346DAB2324B9A74FB69DA68294B4FF0DA
:102D40000001104698470346002B03D0FB694FF063
:102D50000002DA60FB69DA68244B2A49104698477A
:102D60000346002B02D0FB69264ADA60FB69DB6868
:102D700097F86E20019200931E4B4FF000024FF027
:102D8000000120481C4CA04703467B627B6A7B62A3
:102D90004FF000034FF00004C7E912347A6A174B72
:102DA000104698470346DBB287F84830D7E912341B
:102DB0004FEA046B4BEA132B4FEA036A4FF0FF33E1
:102DC0004FF0000403EA0A0304EA0B04C7E91234D3
:102DD0007A6A0A4B104698470346DAB2084BDA740F
:102DE00012E000BFC5630800000020C2896308002C
:102DF000000048C200007F43093F0800D963080073
:102E0000F80A0720000020C1FB691A69994B9A490A
:102E1000104698470346002B02D0FB69964A1A6178
:102E2000FB691A69954B9649104698470346002B53
:102E300002D0FB69924A1A61FB691B6997F86E2000
:102E4000019200938F4B8C4A4FF000018C488E4CBE
:102E5000A04703467B627B6A7B624FF000034FF022
:102E60000004C7E910347A6A884B10469847034635
:102E7000DBB287F84030D7E910341B007B610023B8
:102E80003B614FF000034FF0FF04D7E9041201EA61
:102E9000030102EA04020B461446C7E910347A6AB9
:102EA0007A4B104698470346DAB2794B1A75FB699C
:102EB0005A69704B7049104698470346002B02D060
:102EC000FB696D4A5A61FB695A696C4B6C49104643
:102ED00098470346002B02D0FB69694A5A61FB6997
:102EE0005B6997F86E2001920093664B624A4FF03F
:102EF00000016348644CA04703467B627B6A7B62A7
:102F00004FF000034FF00004C7E90E347A6A5F4BBC
:102F1000104698470346DBB287F83830D7E90E34BD
:102F20001B02FB600023BB604FF000034FF47F44A3
:102F3000D7E9021201EA030102EA04020B46144631
:102F4000C7E90E347A6A514B104698470346DAB205
:102F50004F4B5A75FB699A69464B4E491046984744
:102F60000346002B02D0FB694A4A9A61FB699A69C1
:102F7000424B4949104698470346002B02D0FB6953
:102F8000454A9A61FB699B6997F86E20019200930C
:102F90003C4B404A4FF000013F483B4CA0470346A2
:102FA0007B624FF000034FF00004C7E90C347A6AEB
:102FB000364B104698470346DBB287F83030D7E9E6
:102FC0000C341B047B6000233B604FF000034FF484
:102FD0007F04D7E9001201EA030102EA04020B466A
:102FE0001446C7E90C347A6A284B104698470346C2
:102FF000DAB2274B9A75FB69DA691E4B25491046F0
:1030000098470346002B02D0FB69224ADA61FB692C
:10301000DA691A4B2049104698470346002B02D024
:10302000FB691D4ADA61FB69DB6997F86E20019242
:103030000093144B174A4FF000011748124CA04759
:1030400003467B624FF000034FF00004C7E90A34E7
:103050007A6A0E4B104698470346DBB287F8283051
:103060004FF000034FF00004C7E90A347A6A074BB7
:10307000104613E0C56308000000C04089630800E3
:10308000000020C100007F43093F0800D963080009
:10309000F80A0720000010420000F0C198470346DC
:1030A000DAB2064BDA7502E0F82387F86F3097F949
:1030B0006F3018467437BD46BDE8F08FF80A072018
:1030C0002DE9F04F9FB002AFF861002387F86F3011
:1030D000002387F86E30FB69002B00F0D382FB6978
:1030E0001B689F4A9F49184690470346002B02D011
:1030F000FB699C4A1A60FB691B689B4A4FF0000100
:10310000184690470346002B03D0FB694FF000029E
:103110001A60FB691B6897F86E2001920093934B2D
:10312000904A4FF000014FF00000914CA047034639
:103130007B627B6A8F4A4FF0000118469047034636
:103140007B624FF000034FF00004C7E918347B6A3C
:10315000894A184690470346DBB287F86030D7E9C2
:1031600018124FF0FF034FF0000403EA010304EAD2
:103170000204C7E91834D7E91834DBB27F4A137464
:10318000FB695B68764A7749184690470346002BEF
:1031900002D0FB69734A5A60FB695B68724A4FF060
:1031A0000001184690470346002B03D0FB694FF0FF
:1031B00000025A60FB695B6897F86E2001920093E9
:1031C0006A4B684A4FF000014FF00000684CA0477E
:1031D00003467B627B6A674A4FF0000118469047BE
:1031E00003467B624FF000034FF00004C7E916343A
:1031F0007B6A614A184690470346DBB287F858302D
:10320000D7E91634260246EA13661D024FF6FF730D
:103210004FF0000403EA050304EA0604C7E9163484
:103220007A6A554B104698470346DAB2534B5A74A4
:10323000FB699A684A4B5249104698470346002B4F
:1032400002D0FB694E4A9A60FB699A68464B4FF080
:103250000001104698470346002B03D0FB694FF04E
:1032600000029A60FB699B6897F86E2001920093B8
:103270003E4B434A4FF000014FF000003C4CA0474A
:1032800003467B627A6A3B4B4FF000011046984739
:1032900003467B624FF000034FF00004C7E914348B
:1032A0007A6A354B104698470346DBB287F85030B0
:1032B000D7E914344FEA044949EA13494FEA03486D
:1032C0004FF47F034FF0000403EA080304EA090403
:1032D000C7E914347A6A284B104698470346DAB295
:1032E000264B9A74FB69DA681D4B254910469847AE
:1032F0000346002B02D0FB69214ADA60FB69DA68D9
:10330000194B4FF00001104698470346002B03D09D
:10331000FB694FF00002DA60FB69DB6897F86E200A
:1033200001920093114B164A4FF000014FF000003C
:103330000F4CA04703467B627A6A0E4B4FF00001A8
:103340001046984703467B624FF000034FF000049D
:10335000C7E912347A6A084B10469847034611E0D1
:10336000C563080000002F448963080000007F4304
:10337000093F08003D5E0800D9630800100B0720D4
:103380000000FA43DBB287F84830D7E912344FEA3D
:10339000046B4BEA132B4FEA036A4FF0FF334FF0F5
:1033A000000403EA0A0304EA0B04C7E912347A6A48
:1033B0009B4B104698470346DAB29A4BDA74FB6986
:1033C0001A69994B9949104698470346002B02D039
:1033D000FB69964A1A61FB691A69954B4FF0000127
:1033E000104698470346002B03D0FB694FF00002BC
:1033F0001A61FB691B6997F86E20019200938D4B4F
:103400008A4A4FF000014FF000008B4CA047034662
:103410007B627A6A894B4FF0000110469847034659
:103420007B624FF000034FF00004C7E910347A6A62
:103430007B4B104698470346DBB287F84030D7E90C
:1034400010341B007B6100233B614FF000034FF001
:10345000FF04D7E9041201EA030102EA04020B4661
:103460001446C7E910347A6A6D4B104698470346F4
:10347000DAB26C4B1A75FB695A696B4B6B49104693
:1034800098470346002B02D0FB69684A5A61FB69E2
:103490005A69674B4FF00001104698470346002BCE
:1034A00003D0FB694FF000025A61FB695B6997F832
:1034B0006E20019200935F4B5C4A4FF000014FF089
:1034C00000005D4CA04703467B627A6A5B4B4FF07D
:1034D00000011046984703467B624FF000034FF00F
:1034E0000004C7E90E347A6A4D4B104698470346EC
:1034F000DBB287F83830D7E90E341B02FB600023BB
:10350000BB604FF000034FF47F44D7E9021201EA99
:10351000030102EA04020B461446C7E90E347A6A34
:103520003F4B104698470346DAB23E4B5A75FB694B
:103530009A693D4B4249104698470346002B02D0FA
:10354000FB693F4A9A61FB699A69394B3D491046CC
:1035500098470346002B02D0FB693A4A9A61FB69FF
:103560009B6997F86E2001920093324B344A4FF0DA
:1035700000013448304CA04703467B624FF0000303
:103580004FF00004C7E90C347A6A254B104698477F
:103590000346DBB287F83030D7E90C341B047B607C
:1035A00000233B604FF000034FF47F04D7E9001283
:1035B00001EA030102EA04020B461446C7E90C348F
:1035C0007A6A174B104698470346DAB2154B9A753C
:1035D000FB69DA69144B1A49104698470346002BD9
:1035E00002D0FB69164ADA61FB69DA69104B1549AA
:1035F000104698470346002B02D0FB69114ADA6156
:10360000FB69DB6997F86E2001920093094B0C4A25
:103610004FF000010B48084CA047034614E000BFE0
:10362000D9630800100B0720C56308000000C844D8
:103630008963080000007F43093F08003D5E0800E1
:103640000000B442000020C27B624FF000034FF044
:103650000004C7E90A347A6A0F4B104698470346BC
:10366000DBB287F828304FF000034FF00004C7E9C1
:103670000A347A6A084B104698470346DAB2074B79
:10368000DA7502E0F82387F86F3097F96F30184643
:103690007437BD46BDE8F08FD9630800100B0720D2
:1036A0002DE9F04FA1B002AF7862002387F87730A0
:1036B000002387F876307B6A002B00F0C381A64B8D
:1036C000D3E904124FF0FF034FF0000403EA0103B3
:1036D00004EA0204C7E91A3497F868209F4B1046A1
:1036E000984702467B6A1A607B6A1A6897F87630B8
:1036F000019300929A4B9B4A9B494FF000009B4CD0
:10370000A0470346FB62FA6A994B4FF07C51104682
:1037100098470346FB62FA6A7B6A1A608E4B03F194
:103720001004D4E900341D0A45EA0465260A4FF066
:10373000FF034FF0000403EA050304EA0604C7E9A7
:10374000183497F86030854A1846904702467B6ADD
:103750005A607B6A5B6897F8762001920093804BF1
:10376000804A81494FF00000804CA0470346FB622D
:10377000FB6A7F4A4FF07C51184690470346FB6234
:10378000FA6A7B6A5A60744B03F11004D4E900347E
:103790004FEA134848EA04484FEA14494FF0FF0340
:1037A0004FF0000403EA080304EA0904C7E91634E9
:1037B00097F85820694B1046984702467B6A9A60F2
:1037C0007B6A9B6897F87620019200934FF0000384
:1037D000644A68494FF00000644CA0470346FB620E
:1037E000FA6A634B4FF07C51104698470346FB62E0
:1037F000FA6A7B6A9A60584B03F11004D4E90034EA
:103800004FEA136A4AEA042A4FEA146B4FF0FF03A7
:103810004FF0000403EA0A0304EA0B04C7E9143476
:1038200097F850204D4B1046984702467B6ADA6065
:103830007B6ADB6897F87620019200934FF00003D3
:10384000484A4C494FF00000484CA0470346FB62F1
:10385000FA6A474B4FF07C51104698470346FB628B
:10386000FA6A7B6ADA603C4B03F11004D4E9003455
:103870002300BB610023FB614FF0FF034FF0000406
:10388000D7E9061201EA030102EA04020B461446D4
:10389000C7E9123497F84820304B10469847024643
:1038A0007B6A1A617B6A1B6997F876200192009304
:1038B000314B2C4A2F494FF000002C4CA0470346B7
:1038C000FB62FA6A2A4B4FF07C5110469847034638
:1038D000FB62FA6A7B6A1A611F4B03F11004D4E998
:1038E0000034230A3B6100237B614FF0FF034FF05C
:1038F0000004D7E9041201EA030102EA04020B46BC
:103900001446C7E9103497F84020144B10469847E6
:1039100002467B6A5A617B6A5B6997F8762001925E
:103920000093154B0F4A13494FF000000F4CA0476E
:103930000346FB62FA6A0E4B4FF07C5110469847E3
:103940000346FB62FA6A7B6A5A61034B03F1100477
:10395000D4E9003412E000BF580B07209D5F080037
:10396000000020C200007F43000048C2093F080059
:10397000395E0800000020C10000C040230CBB607D
:103980000023FB604FF0FF034FF00004D7E9021261
:1039900001EA030102EA04020B461446C7E90E34A9
:1039A00097F838202C4B1046984702467B6A9A615C
:1039B0007B6A9B6997F8762001920093274B284AEF
:1039C00028494FF00000284CA0470346FB62FA6AE2
:1039D000264B4FF07C51104698470346FB62FA6A2B
:1039E0007B6A9A61224B03F11004D4E90034230E60
:1039F0003B6000237B60D7E90034C7E90C3497F8BB
:103A00003020154B1046984702467B6ADA617B6A84
:103A1000DB6997F8762001920093104B104A114908
:103A20004FF00000104CA0470346FB62FA6A0F4BB0
:103A30004FF07C51104698470346FB62FA6A7B6A56
:103A4000DA6102E0F82387F8773097F97730184683
:103A50007C37BD46BDE8F08F9D5F08000000104236
:103A600000007F430000F0C1093F0800395E0800F4
:103A7000580B07202DE9F04FA1B002AF7862002368
:103A800087F87730002387F876307B6A002B00F0C8
:103A9000E681A84BD3E904124FF0FF034FF0000476
:103AA00003EA010304EA0204C7E91A3497F868201C
:103AB000A14B1046984702467B6A1A607B6A1A68D7
:103AC0009E4B4FF07C511046984703461A467B6A3E
:103AD0001A607B6A1A6897F8763001930092984BC7
:103AE000984A4FF000014FF00000974CA047034662
:103AF000FB62FA6A7B6A1A608E4B03F11004D4E908
:103B000000341D0A45EA0465260A4FF0FF034FF012
:103B1000000403EA050304EA0604C7E9183497F829
:103B20006030854A184690470246844B4FF07C51DE
:103B30001046984703461A467B6A5A607B6A5B6860
:103B400097F87620019200937D4B7E4A4FF000015A
:103B50004FF000007C4CA0470346FB62FB6A7B4AA7
:103B60004FF07C511846904703461A467B6A5A60CC
:103B7000704B03F11004D4E900344FEA134848EACB
:103B800004484FEA14494FF0FF034FF0000403EAE2
:103B9000080304EA0904C7E9163497F85820664B6D
:103BA000104698470246654B4FF07C5110469847A7
:103BB00003461A467B6A9A607B6A9B6897F8762070
:103BC00001920093624B5F4A4FF000014FF00000FA
:103BD0005D4CA0470346FB62FA6A5C4B4FF07C5198
:103BE0001046984703461A467B6A9A60514B03F188
:103BF0001004D4E900344FEA136A4AEA042A4FEA6F
:103C0000146B4FF0FF034FF0000403EA0A0304EAC9
:103C10000B04C7E9143497F85020474B10469847D7
:103C20000246464B4FF07C511046984703461A46D1
:103C30007B6ADA607B6ADB6897F8762001920093F2
:103C4000434B404A4FF000014FF000003E4CA0476C
:103C50000346FB62FA6A3D4B4FF07C511046984791
:103C600003461A467B6ADA60324B03F11004D4E94A
:103C700000342300BB610023FB614FF0FF034FF0D2
:103C80000004D7E9061201EA030102EA04020B4626
:103C90001446C7E9123497F84820274B1046984736
:103CA00002467B6A1A617B6A1B6997F8762001924B
:103CB0000093284B234A4FF000014FF00000224CA4
:103CC000A0470346FB62FA6A204B4FF07C51104636
:103CD000984703461A467B6A1A61164B03F1100493
:103CE000D4E90034230A3B6100237B614FF0FF03DA
:103CF0004FF00004D7E9041201EA030102EA0402CA
:103D00000B461446C7E9103497F840200A4B10467A
:103D1000984702467B6A5A617B6A5B6997F876200E
:103D2000019200930B4B074A4FF000014FF0000047
:103D300012E000BF700B07209D5F0800395E08008D
:103D400000002F4400007F43093F08003D5E08004B
:103D50000000FA430000C844464CA0470346FB62FB
:103D6000FA6A454B4FF07C511046984703461A4675
:103D70007B6A5A61414B03F11004D4E90034230CEF
:103D8000BB600023FB604FF0FF034FF00004D7E956
:103D9000021201EA030102EA04020B461446C7E9D3
:103DA0000E3497F83820364B104698470246354B6C
:103DB0004FF07C511046984703461A467B6A9A6139
:103DC0007B6A9B6997F87620019200932E4B2F4ACD
:103DD0002F494FF00000274CA0470346FB62FA6AC8
:103DE000284B4FF07C511046984703461A467B6A91
:103DF0009A61224B03F11004D4E90034230E3B6096
:103E000000237B60D7E90034C7E90C3497F83020F1
:103E10001B4B1046984702461A4B4FF07C511046F8
:103E2000984703461A467B6ADA617B6ADB6997F832
:103E3000762001920093144B144A15494FF000006C
:103E40000C4CA0470346FB62FA6A0E4B4FF07C51C4
:103E50001046984703461A467B6ADA6102E0F82367
:103E600087F8773097F9773018467C37BD46BDE83C
:103E7000F08F00BF093F08003D5E0800700B07206F
:103E80009D5F0800395E08000000B44200007F43D7
:103E9000000020C280B582B000AF78603960164B58
:103EA0004FF00001786898470346002B0DD0134B64
:103EB0004FF080413868984703461A46104B114628
:103EC0007868984703467B600CE00C4B4FF08041CC
:103ED0003868984703461A460A4B1146786898474F
:103EE00003467B60054B3968786898470346184657
:103EF0000837BD4680BD00BFB1630800B56108004A
:103F00003D5E0800395E080080B586B000AFF860FD
:103F1000B9607A603B60314BF9687868984703462E
:103F20007B612F4B4FF00001786998470346002BC7
:103F300001D03B6A4DE097F82430002B2BD1294B60
:103F40004FF00001786998470346002B11D0264BAB
:103F5000F968386A98470346002B01D0BB6838E0FF
:103F6000204B7968386A98470346002B13D03B688A
:103F70002FE01C4BF968386A98470346002B01D0A4
:103F8000BB6826E0184B7968386A98470346002BCF
:103F900001D03B681DE0114BF968386A9847034629
:103FA0003B610E4BB9683868984703461A460F4B79
:103FB00011463869984703463B61796938690C4B6B
:103FC000984738610B4BB9683869984703463B619D
:103FD0003B6918461837BD4680BD00BF395E0800F2
:103FE00075630800B16308009D6308004D60080018
:103FF000953E08003D5E080090B589B000AFF860BE
:10400000B9607A600023FB75464B4FF00001F868F9
:1040100098470346002B1CD0434B786898470246CC
:10402000424BF9681046984703461A46404B1046E3
:104030009847404C4FF000023F4BA04703460C46C8
:10404000194622463D4B0846114698470346FB61F8
:104050001BE0354B786898470246344BF9681046A8
:10406000984703461A46324B10469847344C4FF057
:104070000002314BA04703460C46194622462F4BFF
:104080000846114698470346FB61264B4FF0000156
:10409000B86898470346002B1CD0234B7868984794
:1040A0000246224BB9681046984703461A46204BF1
:1040B000104698471F4C4FF000021F4BA047034685
:1040C0000C46194622461D4B0846114698470346A2
:1040D000BB611BE0144B786898470246134BB968E4
:1040E0001046984703461A46114B10469847144C01
:1040F0004FF00002104BA04703460C4619462246DB
:104100000E4B0846114698470346BB61FA69BB69E6
:104110009A4201DA0123FB75FB7D18462437BD4620
:1041200090BD00BFC56308009D5F08004D6008009A
:10413000F95C08003D5A08000000E03FA15D08005E
:10414000395A080080B485B000AFF860B9607A6071
:104150007B68002B03D0FB68BA685A6602E0FB68F4
:10416000BA681A6600BF1437BD4680BC704780B479
:1041700087B000AFF860B9607A60FB687A685A640B
:10418000BB68B3F1805F1FD0B3F1805F05D8002B0F
:1041900027D0B3F1006F0AD01FE0B3F1405F20D009
:1041A000B3F1605F1DD0B3F1205F1AD015E0FB685A
:1041B0001B6F7B61FB681A6F7B68D9437B690B407F
:1041C0001A40FB681A6708E0FB681B6F7B617A681E
:1041D0007B691A43FB681A6700BFFB687A685A60FC
:1041E00000E000BF1C37BD4680BC704780B584B07E
:1041F00000AFF860B9607A60B968F868194B984701
:104200007B6803F001031A46B968F868164B9847B3
:104210007B6803F00A03002B03D0FB68BA681A62BC
:1042200002E0FB68BA685A627B6803F00203002B65
:1042300004D0FB68BA68C3F8802008E07B6803F00C
:104240000803002B03D0FB68BA68C3F88420FB681E
:10425000BA685A61FB68BA681A6000BF1037BD4679
:1042600080BD00BFD14208004541080080B584B040
:1042700000AFF860B9607A603B60B968F868124BCB
:104280009847BA69B968F868104B98473B68002BA3
:1042900003D0FB68BA681A6502E0FB68BA685A6521
:1042A0007B68002B03D0FB68BA681A6302E0FB68E6
:1042B000BA685A63FB68BA681A61FB68BA681A6020
:1042C00000BF1037BD4680BDD142080045410800FF
:1042D00080B483B000AF786039607B683A685A6414
:1042E00000BF0C37BD4680BC704780B483B000AFC0
:1042F00078607B68DB6C18460C37BD4680BC704725
:1043000080B483B000AF78607B689B6C18460C3734
:10431000BD4680BC7047000090B587B002AF7860A2
:1043200039607868454B9847F8603B6803F0F04384
:10433000B3F1205F46D0B3F1205F06D8B3F1006F30
:104340000AD0B3F1805F22D070E0B3F1405F45D076
:10435000B3F1605F42D069E07B6803F01F03012284
:1043600002FA03F31A464FF00061F868344B98479D
:104370007B6803F01F03012202FA03F319463B682E
:1043800003F001031A46F8682E4B984750E07B680B
:1043900003F01F03012202FA03F31A464FF0805183
:1043A000F868274B98477B6803F01F03012202FA45
:1043B00003F319463B6803F001031A46F868214BE2
:1043C000984735E07B6803F01F03012202FA03F3EC
:1043D0003A681946F8681C4B984729E07B6803F057
:1043E0001F03012202FA03F319463B6803F06053EE
:1043F000B3F1605F0CBF01230023DBB21A463B68B8
:1044000003F00403002B14BF01230023DBB2184682
:104410003B6803F00103002B14BF01230023DBB230
:1044200000930346F868094CA04701E0002300E030
:10443000012318461437BD4690BD00BF354508001E
:104440006F41080045410800ED4108006D42080039
:1044500090B587B002AFF860B9607A607B6803F00E
:10446000F043B3F1205F2ED0B3F1205F06D8B3F153
:10447000006F0AD0B3F1805F16D04CE0B3F1405F1B
:1044800027D0B3F1605F24D045E0BA684FF00061F7
:10449000F868244B98477B6803F001031A46B96813
:1044A000F868214B984738E0BA684FF08051F868B7
:1044B0001C4B98477B6803F001031A46B968F868FB
:1044C000194B984729E07A68B968F868174B9847FC
:1044D00023E07B6803F06053B3F1605F0CBF0123FE
:1044E0000023DBB21A467B6803F00403002B14BFE1
:1044F00001230023DBB219467B6803F00103002B84
:1045000014BF01230023DBB200930B46B968F8689F
:10451000074CA04701E0002300E0012318461437B0
:10452000BD4690BD6F41080045410800ED410800BF
:104530006D42080080B485B000AF78607B685B098D
:1045400003F5001303F207735B02FB60FB68184678
:104550001437BD4680BC704780B584B000AF78602A
:1045600039607868264B9847F8607868254B9847FB
:104570000246FB681340FB60FB68002B3CD0002325
:10458000BB6034E0204ABB681B0113441A683B68D7
:104590009A4226D11C4ABB681B01134404331A6893
:1045A000FB681340002B1CD0174ABB681B01134447
:1045B0000C331B681449BA6812010A441068124986
:1045C000BA6812010A4404321268114698470E4A2A
:1045D000BB681B01134404331B68DB43FA681340B8
:1045E000FB60BB680133BB60BB68062B03D8FB686C
:1045F000002BC7D100E000BF00BF1037BD4680BD13
:10460000EB42080001430800880B072080B500AF8B
:104610000B210248024B984700BF80BD000E0E40A0
:104620005945080080B500AF0C210248024B98475D
:1046300000BF80BD00100E405945080080B500AF96
:104640000D210248024B984700BF80BD00120E406A
:104650005945080080B500AF0E210248024B98472B
:1046600000BF80BD00140E405945080080B485B0DD
:1046700000AF78601C491C4B1B6B23F070027B68F9
:1046800013430B634FF40063FB6007E0FB68002BF0
:1046900001D1012323E0FB68013BFB60124B9B6EC1
:1046A00003F00803002BF1D00F4A0F4B1B6B23F0D4
:1046B000030343F0020313634FF40063FB6007E05E
:1046C000FB68002B01D1012309E0FB68013BFB6083
:1046D000054B9B6E03F00803002BF1D00023184616
:1046E0001437BD4680BC704700060E4080B483B0CE
:1046F00000AF78607B68012B07D1084A074B9B68A5
:1047000043F0254343F480139360044B044A1A603A
:1047100000BF0C37BD4680BC704700BF101A0E406A
:10472000080000A580B400AF094B5B6903F080036B
:10473000002B07D0074B9B6E03F08003002B01D0AA
:10474000012300E000231846BD4680BC704700BF2F
:10475000101A0E4000060E4080B483B000AF78609F
:10476000184A184B1B6A43F45C1343F008031362A6
:1047700000BF144B9B6E03F40033002BF9D011499A
:10478000104B1B6A23F45C1323F070037A68134305
:1047900043F45C130B6200BF0A4B9B6E03F40033BF
:1047A000002BF9D0074A074B1B6A23F09B7323F4B5
:1047B000803343F45C13136200BF0C37BD4680BCEA
:1047C000704700BF00060E4080B483B000AF786031
:1047D00039607B68002B08D01649164B1B6A164AB5
:1047E0001A40164B13430B621EE01249114B1B6A11
:1047F00023F45C1323F003033A68120292B21343CA
:1048000043F45C1343F001030B6200BF094B9B6E42
:1048100003F00103002BF9D0064A064B1B6A43F054
:104820009B7343F48033136200BF0C37BD4680BCDA
:10483000704700BF00060E40FCFFC8FE02003701B3
:1048400080B400AF034B9B6E03F480331846BD4623
:1048500080BC704700060E4080B400AF034B4FF0A1
:1048600000529A6200BFBD4680BC704700060E40F1
:1048700080B400AF034B9B6E03F002031846BD46A5
:1048800080BC704700060E4080B400AF034B9B6EA7
:1048900003F040031846BD4680BC704700060E403A
:1048A00080B485B000AF78600A4A7B6803F07F036C
:1048B000C2F80C31074BD3F80C3143F01023FB60E6
:1048C000044AFB68C2F80C31002318461437BD4671
:1048D00080BC704700060E4080B485B000AF7860A1
:1048E00039600023FB607B68AC221A603B681A6861
:1048F0003B685B68B2FBF3F31B09FB60FB68002BB2
:1049000003D0FB68B3F5803F01D301230FE07B6840
:10491000FA681A623B689A687B685A607B6840F262
:104920000222C3F820217B6850221A600023184617
:104930001437BD4680BC704780B483B000AF786048
:104940000B46FB707B685B6903F00203002B01D10F
:10495000012303E0FA787B68DA61002318460C37FC
:10496000BD4680BC704780B483B000AF78603960CA
:104970007B685B6903F00103002B01D1012305E093
:104980007B689B69DAB23B681A70002318460C37C3
:10499000BD4680BC704780B489B000AFF860B96094
:1049A0007A60BB681A017B689A4202D81023FB61C7
:1049B00001E00823FB617B68DA00FB69B96801FB51
:1049C00003F35B081A44FB69B96801FB03F3B2FB0C
:1049D000F3F3BB61BB69DB087B61BB6903F00703D1
:1049E0003B617B69002B03D07B69B3F5803F01D32A
:1049F00001230FE0FB69082B05D1FB685B6843F4DA
:104A00000022FB685A603B691A047B691A43FB6801
:104A10001A62002318462437BD4680BC7047000048
:104A200080B582B000AF786078680D4B98477B689E
:104A300000225A607B6800225A627B6800229A62D8
:104A40007868084B98477868074B98477868074B11
:104A500098477868064B984700BF0837BD4680BD29
:104A6000F14B0800114B0800414B0800594B08005E
:104A7000734B080080B584B000AFF860B9607A600D
:104A8000F8681A4B98471A4B00221A60BB68002B33
:104A900009D0BB681B687A681946F868154B9847B7
:104AA0000346002B01D001231BE0BB685A68BB689A
:104AB0009B681A43BB681B691A43BB68DB681A43CF
:104AC0000B4B1B6813430A4A1360094B1B68084AC7
:104AD0001360FB685A68064B1B681A43FB685A60F0
:104AE000002318461037BD4680BD00BF214A08008C
:104AF000F80B07209749080080B483B000AF7860B6
:104B00007B6840221A6000BF0C37BD4680BC7047EE
:104B100080B483B000AF78607B6888221A6000BFE1
:104B20000C37BD4680BC704780B483B000AF78605E
:104B30007B6810221A6000BF0C37BD4680BC7047EE
:104B400080B483B000AF78607B6824221A6000BF15
:104B50000C37BD4680BC704780B483B000AF78602E
:104B60007B684FF480721A6000BF0C37BD4680BC72
:104B7000704780B483B000AF78607B684FF4002248
:104B80001A6000BF0C37BD4680BC704780B483B04C
:104B900000AF786039607B685B6903F00203002B2B
:104BA00001D1012305E03B68C3F308027B68DA61A9
:104BB000002318460C37BD4680BC704780B483B0D4
:104BC00000AF786039607B685B6903F00103002BFC
:104BD00001D1012306E07B689B69C3F308023B68AF
:104BE0001A60002318460C37BD4680BC7047000091
:104BF00080B483B000AF78607B68044AC3F8E420D7
:104C000000BF0C37BD4680BC704700BF0041535504
:104C100080B400AFFEE7000080B582B000AF1E4B4D
:104C20007B601E4B3B607A683B689A420CD007E081
:104C30003B681A1D3A607A68111D796012681A6023
:104C40003B68174A9342F3D3164B3B6004E03B6842
:104C50001A1D3A6000221A603B68134A9342F6D349
:104C6000124B7B60124A7B6823F0604323F07F0382
:104C700093607B68B3F1005F09D37B680D4A934270
:104C800005D80B4A0A4B9B6843F0005393600A4BCC
:104C900098470A4B9847FEE7288308000000072042
:104CA000D4090720D8090720641107200000080054
:104CB00000ED00E0FFFF0F201964080065580800B0
:104CC00080B400AF574B1B6B03F00303032B00F2C0
:104CD0008A8001A252F823F0E94C0800094D08002F
:104CE000594D0800594D08004F4B5B6903F0800394
:104CF000002B04D04D4B4FF400421A6073E04B4B35
:104D00004FF4FA421A606EE0464B1B6A03F0807360
:104D1000002B03D0454B464A1A6064E0434B454A9A
:104D20001A60404B1B6A03F07003102B04D0202B39
:104D300008D0002B0ED00EE03C4B1B685B003B4ABA
:104D4000136008E0394B1A6813465B001344374A76
:104D5000136000E000BF46E0324B1B6A03F0807333
:104D6000002B03D0314B324A1A601CE02F4B314AE2
:104D70001A602C4B1B6A03F07003102B04D0202BFD
:104D800008D0002B0ED00EE0284B1B685B00274A92
:104D9000136008E0254B1A6813465B001344234A4E
:104DA000136000E000BF1F4B1B6B03F00303022BDB
:104DB00015D11C4B9B6A1B0CC3F30A0301331B4A1E
:104DC000126802FB03F3194A1360164B9B6ADBB2AD
:104DD000164A1268B2FBF3F3144A136002E0134B55
:104DE000154A1A6000BF0F4B1B6B03F07003702B4A
:104DF00008D10E4B1B68114AA2FB03235B080B4A28
:104E000013600AE0074B1B6B1B0903F00703074AFB
:104E1000126822FA03F3054A136000BFBD4680BC46
:104E2000704700BF00060E40101A0E408C0107208C
:104E3000001BB70000093D00001C4E0EABAAAAAA39
:104E400080B485B000AF7860104BFB60104B1B68DE
:104E5000002B02D10E4B0F4A1A600D4B1B68BB6032
:104E6000BA687B681A44FB689A4202DD4FF0FF3350
:104E700006E0074B1A687B681344054A1360BB6859
:104E800018461437BD4680BC704700BFFC7F082021
:104E9000FC0B07206831072080B483B000AF786036
:104EA0004FF0FF3318460C37BD4680BC704780B4C6
:104EB00083B000AF786039603B684FF400525A60AD
:104EC000002318460C37BD4680BC704780B483B0C1
:104ED00000AF7860012318460C37BD4680BC704790
:104EE00080B485B000AFF860B9607A6000231846DE
:104EF0001437BD4680BC704780B483B000AF034612
:104F0000FB7197F90730002B0BDB084997F9073045
:104F10005B09FA7902F01F02012000FA02F241F85F
:104F2000232000BF0C37BD4680BC704700E100E085
:104F300080B483B000AF78607B68072B25D801A2CE
:104F400052F823F0654F08006B4F0800714F0800BE
:104F5000774F08007B4F08007F4F0800834F080001
:104F6000874F08004FF4FA4310E04FF400430DE080
:104F70004FF400430AE0084B08E0084B06E0084BFA
:104F800004E0074B02E0064B00E0002318460C3714
:104F9000BD4680BC704700BF00093D0000127A008A
:104FA000001BB70080B500AF0620044B98470246AF
:104FB0001346DB009B1A5B00184680BD314F08008A
:104FC00080B500AF024B984703465B08184680BD8A
:104FD000A54F080080B500AF024B984703465B0819
:104FE000184680BDA54F080080B582B000AF78603C
:104FF0007868034B984700BF0837BD4680BD00BFA7
:10500000A148080080B48BB000AF78607B687B62F9
:105010007B6A3B623B6AFB61FB695B09BB61BB6905
:1050200003F5001303F207735B027B617B6A3B614C
:105030003B6903F01F03012202FA03F3FB607B6963
:10504000DA6B7B6ABB60BB6803F01F03012101FAC6
:1050500003F31340002B03D07B69FA685A6302E024
:105060007B69FA681A6300BF2C37BD4680BC704765
:1050700080B58CB000AF78603960404B98470346EC
:105080007B623B681B68BB623B689B68FB623B685A
:105090001B68FB603B685B683B613B689B687B61AE
:1050A0003B68DB68BB610023FB617B68344A934249
:1050B00008D10820334B984707F124031946786834
:1050C000314B98477B68314A934211D111202D4BC7
:1050D00098472A4B9847024607F10C03194678680F
:1050E0002B4B984778682B4B984778682A4B984702
:1050F0007B682A4A934211D11220224B98471F4BBA
:105100009847024607F10C0319467868204B9847E8
:105110007868204B984778681F4B98477B68204AEF
:10512000934211D11320174B9847144B98470246CE
:1051300007F10C0319467868154B98477868154BAA
:1051400098477868144B98477B68164A934211D168
:1051500014200C4B9847094B9847024607F10C0363
:10516000194678680A4B984778680A4B98477868D8
:10517000094B984700BF3037BD4680BDD54F08006A
:1051800000080E40E94F0800D94808000080094097
:10519000754A0800F94A0800294B080000C0094078
:1051A00000000A4000400A4080B582B000AF78603D
:1051B0000B46FB707B68274A93420AD100BFFB78FD
:1051C00019467868244B98470346002BF7D10123F2
:1051D0003CE07B68214A93420AD100BFFB78194624
:1051E00078681F4B98470346002BF7D101232DE029
:1051F0007B681C4A93420AD100BFFB781946786845
:10520000174B98470346002BF7D101231EE07B681C
:10521000154A93420AD100BFFB7819467868104BB3
:1052200098470346002BF7D101230FE07B680F4A14
:1052300093420AD100BFFB7819467868084B98471B
:105240000346002BF7D1012300E00023184608375E
:10525000BD4680BD00080E40394908000080094065
:105260008D4B080000C0094000000A4000400A4081
:1052700080B584B000AF786039600023FB607B6844
:105280002B4A934207D100BF39687868294B984769
:105290000346002BF8D17B68274A93420DD100BF0B
:1052A00007F10C0319467868244B98470346002BF6
:1052B000F6D1FB68DAB23B681A707B68204A9342E9
:1052C0000DD100BF07F10C03194678681B4B9847B6
:1052D0000346002BF6D1FB68DAB23B681A707B6894
:1052E000184A93420DD100BF07F10C0319467868A4
:1052F000124B98470346002BF6D1FB68DAB23B68A5
:105300001A707B68104A93420DD100BF07F10C035D
:1053100019467868094B98470346002BF6D1FB687D
:10532000DAB23B681A7000BF1037BD4680BD00BFBF
:1053300000080E406749080000800940BD4B080086
:1053400000C0094000000A4000400A4080B582B019
:1053500000AF786039600F4A7B6813600E4B0F4ACC
:105360001A600F4B0F4A1A60396878680E4B9847DD
:105370000E4B1B689B68002118460D4B98470B4B42
:105380001B685B6800211846094B984700BF083727
:10539000BD4680BD5C0C0720580C0720A9510800B1
:1053A000540C07207152080071500800900107202A
:1053B0009D66080080B582B000AF786003220121AD
:1053C00009480A4B98477B6800229A727B680F2233
:1053D0005A727B680822DA7279680348044B98474E
:1053E00000BF0837BD4680BD00400B40A510080037
:1053F000E112080080B483B000AF0023FB71084BBA
:105400001B68084A934204D9054B00221A60012305
:10541000FB71FB7918460C37BD4680BC704700BF56
:10542000100C0720A086010080B582B000AF0448B0
:10543000044B9847786000BF0837BD4680BD00BF69
:1054400000800B406109080080B500AF0548064B9D
:1054500098470246054B1A600248054B984700BF23
:1054600080BD00BF00400B401D1208000C0C07203F
:10547000410C0800B0B5B0B000AF7860002387F8E9
:105480004F30002387F8BF30012387F8BE307B6898
:105490001B6840F20642934230D178687F4B9847B0
:1054A00007F14F0207F15003114618467C4B98470D
:1054B0007C4BBB667C4BFB667C4B3B677C4B7B67CA
:1054C0007C4BBB677C4BFB677C4BC7F880307C4BCD
:1054D000C7F8843097F8BE2097F8BF1007F168032B
:1054E0001846784B984707F1A0031846764B984723
:1054F00007F1A0031846754B9847CBE07B681B6803
:1055000040F20742934277D1714BFB62714B3B6390
:10551000714B7B63714BBB63714BFB63714B3B64A2
:10552000714B7B6497F8483043F0800387F848302C
:1055300097F849306FF3000387F8493097F84930FE
:1055400043F0400387F8493097F849306FF345132B
:1055500087F8493097F848306FF3000387F84830F0
:1055600097F8483043F0020387F8483097F84830FE
:105570006FF3820387F8483097F8483043F0080308
:1055800087F8483097F848306FF3041387F84830AD
:1055900097F8483043F0200387F8483097F84830B0
:1055A0006FF3861387F8483097F8493043F00203C9
:1055B00087F8493097F8493043F0040387F84930B9
:1055C00097F849306FF3C30387F8493097F84930AB
:1055D00043F0100387F8493007F12C031846434B7A
:1055E000984707F1A0031846414B984707F1A003DD
:1055F0001846364B98474DE07B681B68B3F5816FC2
:1056000021D178683B4B984707F10C0318463A4B79
:10561000984707F12C0407F10C050FCD0FC495E84E
:105620000F0084E80F0007F12C031846334B98470E
:1056300007F1A0031846324B984707F1A00318461C
:10564000224B984726E07B681B6840F20942934250
:1056500020D178682B4B984707F10C0318462A4B4A
:10566000984707F12C0407F10C050FCD0FC495E8FE
:105670000F0084E80F0007F12C031846234B9847CE
:1056800007F1A0031846224B984707F1A0031846DC
:105690000E4B984700BFC037BD46B0BD411708004C
:1056A0001926080066660A429AD9E34333B3554384
:1056B00066063D4433B3B0439A197E4366064944B7
:1056C00000009841C517080091160800B55308005E
:1056D000CDCC44410000F4C1000028C10000684165
:1056E00000009C4200004843CDCCF842791F0800DE
:1056F000BD1608006D170800A1360800452B0800EC
:10570000E916080099170800753A0800C13008002A
:105710001517080080B582B000AF78607B681B6801
:1057200040F2054293420BD1164B1B8801339AB2CB
:10573000144B1A80134B1B88DAB27B681A740AE088
:10574000104B1B88013B9AB20E4B1A800D4B1B88E5
:10575000DAB27B681A747B681B685A1C7B681A6013
:105760007B6800229A727B680F225A727B6808223B
:10577000DA7279680448054B984700BF0837BD4680
:1057800080BD00BF080C072000800B40E11208001C
:1057900098B500AF1848194B984700211648184B88
:1057A00098470246174B1A60002340F2014200213D
:1057B0001148154CA04700234FF4FE6200210E480B
:1057C000124CA047012200210B48114B98470021A1
:1057D0000948104B984703461A460F4B1A70002190
:1057E0000548074B98470246064B1A6001210248BC
:1057F0000A4B984700BF98BD00400B40B11208000B
:105800002B110800040C072045100800A50F080004
:10581000A5100800F5100800010C07202D0908004C
:1058200080B584B000AF3B4600221A605A609A608F
:10583000DA604FF4E1333B604FF40063BB60082053
:10584000054B98473B4619460448054B984700BF0F
:105850001037BD4680BD00BFE94F080000080E406C
:105860004D53080080B58AB000AF00237B6200234F
:105870003B62396A786A404B9847404B9847404BA7
:105880009847404B98474048404B98472B20404B07
:1058900098472C203E4B98473E4B9847F8614FF471
:1058A0007A72F9693C483D4B98470346002B2AD051
:1058B0004FF47A72F9693A48384B98470346002BFF
:1058C00021D038490020384B984738490420364BBE
:1058D000984737482D4B98474FF0FF312E48354BAE
:1058E00098474FF0FF312E48324B98472B20324BD0
:1058F00098472C20304B98473048244B9847304BE2
:105900009847304B9847304B1B6801332E4A136041
:105910002E4B98470346FB76FB7E012B02D13B20A2
:105920002B4B98472B490C202B4B9847294B1B6836
:10593000012B02D90C20294B984729490320264BDB
:10594000984728490720244B9847264B1B68B3F5F6
:105950007A7F02D90720214B98470F48224B98475E
:1059600003461A46214B1A700D481F4B98470346B1
:105970001A461E4B1A70C6E7550608005D0408005B
:10598000CD050800215808006C8208008D660800CB
:10599000A1480800C14F080000400B40490808001A
:1059A00000800B4075540800851508001557080045
:1059B000B882080047090800F94E0800DC82080098
:1059C000B515080091570800100C0720F553080082
:1059D000055008001C0C0720C9060800990608009D
:1059E000140C0720180C072077090800000C07206A
:1059F0000346A8B1B9B10020187058709870D870DB
:105A0000187158719871D871187258729872D8724A
:105A10006FF017021A7303225A739973D973704780
:105A20004FF0FF3070474FF0FF30704740687047CD
:105A300081F0004102E000BF83F0004330B54FEA3F
:105A400041044FEA430594EA050F08BF90EA020FAC
:105A50001FBF54EA000C55EA020C7FEA645C7FEA3F
:105A6000655C00F0E2804FEA5454D4EB5555B8BF62
:105A70006D420CDD2C4480EA020281EA030382EAD3
:105A8000000083EA010180EA020281EA0303362D65
:105A900088BF30BD11F0004F4FEA01314FF4801C38
:105AA0004CEA113102D0404261EB410113F0004F4A
:105AB0004FEA03334CEA133302D0524263EB430301
:105AC00094EA050F00F0A780A4F10104D5F1200E9F
:105AD0000DDB02FA0EFC22FA05F2801841F10001FA
