S01500006D796E61726963436F6E646F722E73726563B7
S21408000098A5072051C808004DC808004DC8080024
S2140800104DC808004DC808004DC80800000000007C
S2140800200000000000000000000000004DC80800A6
S2140800304DC80800000000004DC808004DC808005C
S2140800404DC808004DC808004DC808004DC808002F
S2140800504DC808004DC808004DC808004DC808001F
S2140800604DC808004DC80800000000004DBC080038
S21408007019BD0800E5BD0800B1BE08000000000074
S214080080000000004DC808004DC808004DC808000C
S2140800904DC808004DC808004DC808004DC80800DF
S2140800A04DC808004DC808004DC8080055CA0800C5
S2140800B04DC808004DC808004DC808004DC80800BF
S2140800C04DC808004DC808004DC808004DC80800AF
S2140800D04DC80800F17F08004DC808004DC8080044
S2140800E04DC808004DC808004DC80800F9060800A5
S2140800F0E906080010B5054C237833B9044B13B14C
S2140801000448AFF300800123237010BD680507205C
S21408011000000000B01909000C4B43B10C4810B59C
S2140801200C49AFF300800C48036823B910BD0A4891
S214080130036833B97047094B002BF7D0BDE8104069
S2140801401847064B002BF5D0184700BF00000000E4
S214080150B01909006C050720B01909000000000056
S21408016070B50F480F4DA8473E2100200E4B984704
S2140801700E4CA0470028FCD00D4B98470D4B0E4A56
S2140801800E4C9A62A0470028FCD00D4B10209847CA
S2140801900C4B98472B46BDE870400B48184700BFE5
S2140801A00087930391000720D5BF080025C00800E4
S2140801B035C0080000060E40013F0D2045C0080067
S2140801C07DBF0800DDC80800007E5603F0B4314E37
S2140801D00746327892B14FF6FF706FB161B12E4A7A
S2140801E0394417F8013B83EA102332F813308F425C
S2140801F083EA002080B2F4D1F0BC7047274D13463E
S21408020041F2210404E012F0800F0CBF00232346BD
S21408021083EA4220000454BF5B0044EA430383EAAF
S2140802208220000454BF5B0084EA43039BB283EA3F
S214080230C220000454BF5B0084EA43039BB283EAEF
S2140802400230000454BF5B0084EA43039BB283EA8F
S2140802504230000454BF5B0084EA43039BB283EA3F
S2140802608230000454BF5B0084EA43039BB283EAEF
S214080270C230000402F1010254BF5B0084EA430363
S21408028092B29BB2B2F5807F25F8023FBBD101231C
S2140802903370A0E784070720840507208205072017
S2140802A04FF400424B4B70B50B205A604A4CA0479F
S2140802B00C20A0470D20A0470E20484DA047484CCC
S2140802C04FF040514C20A0474FF040514D20A047DA
S2140802D029464F20A04729465020A0474FF04051B6
S2140802E05120A04729465A20A04729465B20A04708
S2140802F04FF040515C20A04729465820A047294681
S2140803005920A04729465D20A04729465E20A047D9
S21408031029461C20A04729461D20A04729463720E5
S214080320A04730490C20A0474FF080513020A04706
S2140803304FF080513820A0474FF080514220A04708
S2140803404FF080514420A0474FF080514620A047E8
S2140803504FF080514820A0474FF080515520A047C5
S2140803604FF080515320A0474FF080515620A047A9
S2140803704FF000611920A0474FF000611A20A047EF
S2140803804FF000611B20A0474FF000610A20A047ED
S2140803904FF000610B20A0474FF000613920A047BE
S2140803A04FF080511120A04729460C20A0474FF057
S2140803B000610120A0474FF000610020A0474FF0E1
S2140803C000612F20A0472346BDE870404FF000612B
S2140803D02E201847501A0E4055C00800010000305D
S2140803E055BB0800000E0E40F8B5104B9847104C49
S2140803F0104D114E04F1380754F8041F284640F2F1
S2140804003912B047A74205F11005F5D10B4C0C4D33
S21408041004F1600754F8041F284640F23912B04722
S214080420A74205F11005F5D1F8BD00BFC978080048
S214080430000609004008072085CE0800380609008F
S2140804402009072030B440F6E444084D084B35F838
S214080450105004FB05F083FB0043C4170344C4EBA9
S214080460633315800B6030BC704700BFA4070720B5
S2140804700900028030B540F6E4440B4B0B4D33F8C8
S214080480103004FB03F0C3EB033385FB03E485FB62
S21408049000E51C440544DB17C017C3EB6433C0EB08
S2140804A065301380086030BD0C08072009000280FC
S2140804B02DE9F0430E22164B83B016491648984786
S2140804C0164A13780133DBB2102B03D0137003B02F
S2140804D0BDE8F08300239946114C124D124EDFF802
S2140804E04C80137004F11C07638828469B0819463D
S2140804F001AA0193C047019B24F8029FBC4205F15C
S214080500100526F8023FEFD103B0BDE8F08300BF20
S214080510B17C080088070720C00707208507072042
S2140805208607072040080720A2070720C1CE080034
S2140805302DE9F04F012683B04FF0000A544D554F71
S214080540DFF8608103E00136F6B20AF1010A5FFAC5
S2140805508AF400210D20A8470DF106012046B84769
S214080560834601210D20D946A847013CBAF1000F61
S21408057071D0E4B2BDF80630BBF1000F54D138F89C
S2140805801420082E134428F81430DCD15E46DFF811
S21408059018A1012404E00134E4B201360AF1020A83
S2140805A000210F20A8470DF10601F0B2B847834690
S2140805B001210F20A847D946BDF80630002E55D091
S2140805C0BBF1000F30D1BAF80020082C1344AAF863
S2140805D00030E0D15E46DFF8D4A0012404E0013400
S2140805E0E4B201360AF1020A00211020A8470DF1EC
S2140805F00601F0B2B847012181461020A847BDF889
S2140806000630002E3BD0B9F1000F0DD1BAF8002005
S214080610082C1344AAF80030E1D11F4A1378013396
S214080620DBB2102B04D01370484603B0BDE8F08F39
S2140806304C461A4B1A4982F8009003F130005A8843
S21408064023F8024F9208834221F8022FF7D1484632
S21408065003B0BDE8F08FBDF80630BBF1000FE3D15C
S214080660B8F80E201344A8F80E306CE7BBF1000F5C
S214080670DAD1B8F81E201344A8F81E308BE7B9F173
S214080680000FD1D1B8F82E201344A8F82E30A6E7CC
S214080690C5BA08009578080086070720DA070720F5
S2140806A00A080720DC070720EA070720FA070720BA
S2140806B0004B184705B50800004B184745B4080016
S2140806C0004B184741B40800004B1847E5B308002C
S2140806D0004B184781B30800004B184751B3080071
S2140806E0004B1847D5B208000148024B184700BF10
S2140806F000800B40AD8608000148024B184700BF33
S21408070000400B40AD8608002DE9F04F002783B067
S2140807104FF47A729C4E9D499D48B0479D4D4FF0C8
S214080720FF319B48A8479C4C9948A0474FF47A72DB
S21408073096499A48B0474FF0FF319848A8479748D7
S214080740A047974BDFF894B2964C914E934D019381
S21408075000979DF800805BF8049B41464A460023B4
S2140807603046914FB8470122414630468F4B98474E
S214080770019B304653F804AB8D4F51460193A04772
S2140807804FF400213046A0474FF480313046A0474A
S2140807904FF480213046A0474FF080713046A0477E
S2140807A04FF000713046A0474FF000613046A04732
S2140807B04FF080513046A0474FF080613046A04742
S2140807C04146002340F2FF723046B8474A46414643
S2140807D000232846744FB8470122744B41462846E2
S2140807E0984751462846A0474FF400212846A04778
S2140807F04FF480312846A0474FF480212846A0476A
S2140808004FF080712846A0474FF000712846A04751
S2140808104FF000612846A0474FF080512846A04771
S214080820009B4FF08061013328460093604FA04735
S2140808300023414640F2FF722846B847009B052B26
S21408084087D1DFF89CA1DFF89CB1514E534DDDF8F7
S21408085000805AF8049B41464A4600233046524FC9
S214080860B84747460122514B4146304698475BF801
S214080870048B30464146A0474FF400213046A04737
S2140808804FF480313046A0474FF480213046A047C9
S2140808904FF080713046A0474FF000713046A047B1
S2140808A04FF000613046A0474FF080513046A047D1
S2140808B04FF080613046A047394600234FF4FE6269
S2140808C0009730463A4FB8474A46DDF8009000236E
S2140808D049462846344FB8470122344B49462846ED
S2140808E0984741462846A0474FF400212846A04787
S2140808F04FF480312846A0474FF480212846A04769
S2140809004FF080712846A0474FF000712846A04750
S2140809104FF000612846A0474FF080512846A04770
S2140809204FF080612846A047214F00234FF4FE620F
S21408093049462846B8474F460137FBB2072B00936F
S21408094085D11C4C1C490020A0471C490120A04703
S2140809501B490220A0471B490320A0471A49042028
S214080960A0471A490520A04719490620A047194B51
S21408097098474FF400614FF48052174B59605A60FD
S21408098003B0BDE8F08F00BF2D820800007E560336
S21408099000400B40058408002D89080000800B40A5
S2140809A0B806090001840800DD88080009890800DF
S2140809B089880800498C0800E1060800D90608005E
S2140809C0D1060800C9060800C1060800B9060800CE
S2140809D0B1060800A9AD080000E100E09C06090081
S2140809E0B0060900CC0609001838272819D8DFE809
S2140809F000F01E23282D32373C41464B505514181C
S214080A001818181818181818181818181818181859
S214080A101818181818185A185F19372200230A8049
S214080A208B707047592200230A808B7070474C22BF
S214080A3000230A808B7070474D2200230A808B7033
S214080A4070474F2200230A808B707047502200237D
S214080A500A808B707047512200230A808B7070477B
S214080A605A2200230A808B7070475B2200230A8074
S214080A708B7070475C2200230A808B7070475D225B
S214080A8000230A808B7070475E2200230A808B70D2
S214080A9070471C2200230A808B7070471D22002393
S214080AA00A808B7070470C2200230A808B70704770
S214080AB0582200230A808B70704700BF430903F54D
S214080AC0001303F207735B023AB9012200F01F0015
S214080AD002FA00F0586300207047012200F01F0059
S214080AE002FA00F018630020704700BF2DE9F04FA7
S214080AF0DFF83C8100254446414A89B0414BDFF87F
S214080B003491DFF834B1DFF834A13F4F019253F83F
S214080B10046B38460293039331463C4B9847019B37
S214080B205BF8252053F8040B59F8041B01930B2394
S214080B3063605AF825302181A07221462261E3605D
S214080B402660334B38469847314600223846314BA4
S214080B5098470135304B314638469847052D04F1FD
S214080B602804029BD3D1002414264FF001092A2713
S214080B7029462548254B9847C8F8C8502749A8F855
S214080B80D040C8F8CC4088F8D290C8F8D870C8F8D2
S214080B90D4601F4B1C489847224629461A481D4BC6
S214080BA09847294618481C4B984729461648174B15
S214080BB09847C8F8F0501A4988F8FA90A8F8F84004
S214080BC0C8F8F440C8F80071C8F8FC60104B0E4826
S214080BD09847224629460C480E4B984729460A4805
S214080BE00D4B98470F4D104A0DEB06010F4B064864
S214080BF0069405950792984709B0BDE8F08F00BFA0
S214080C000C0709002807090000400940D5C308005A
S214080C10ADC20800E1C30800C9C308006080072009
S214080C208880072020D1ED02007E560375C0080094
S214080C30987F0720D406090044070900F006090033
S214080C40054B10B400EB80040A46044803EBC401C5
S214080C50034B10BC184700BF987F07200040094088
S214080C60ADC3080038B51A4C1A4B2046984780255D
S214080C7002214FF08073002221602560236063689C
S214080C80114643F0010363606368204643F010038F
S214080C906360114B98472046012200210F4B984766
S214080CA02046042200210E4B98472A46204600215B
S214080CB00C4B9847702200210B4B204698470B4D4B
S214080CC01023204640220021A8470123236038BD70
S214080CD000800040F5C3080071C4080089C40800F5
S214080CE0A1C40800E5C40800F9C4080019C508002E
S214080CF030B5012383B00446018800220B480C4D0A
S214080D00A84778B9094A1369DB07FCD5094D0DF1E0
S214080D10070229460548084B984718B92B882380A8
S214080D2003B030BD6FF01100FAE700BF0080004046
S214080D303DC40800A00A07200DC408002DE9F04F9E
S214080D40002406250126ADF5017DDFF830810F4623
S214080D50924621464FF4FA7203A8994601948DF8F4
S214080D6008408DF80450DFF818B1C04769463F4878
S214080D708DF80060DFF80C81D847324601A93B4859
S214080D808DF80350C04710F0FF0F04D00F200DF564
S214080D90017DBDE8F08F364D344C364E02E069468C
S214080DA02046B0472046A8470028F8D002223B0C29
S214080DB08DF80F703F0A8DF80C208DF80D308DF8E1
S214080DC00E70B9F1000F04D051464A4604A82A4BC3
S214080DD0984769462548D84709F1040203A92348D5
S214080DE0C04710F0FF0FD1D1204C224E01E020461C
S214080DF0B0472046A84769460028F8D01B48D84779
S214080E00062301220DF1030118488DF80330174C0C
S214080E10C047012601E08DF803602046A847002851
S214080E20F9D001220DF103011048C04710F0FF0F5A
S214080E30ACD10E4CFD2601E08DF803602046A8478D
S214080E400028F9D00DF1030101220848C04710F028
S214080E50FF0F9BD1054C074E02E069462046B04777
S214080E602046A8470028F8D0002090E700800940D0
S214080E7005C60800FDC508005D0309004904090009
S214080E80F5C508007DC5080001202DE9F04F0027AC
S214080E9087B006AC04F80C0DDFF820914148884668
S214080EA015461E4604978DF81470C8473A462146DC
S214080EB000973D4B3B483D4FB8473D4B3948984710
S214080EC0DFF8FC9021463748C84703234FEA182224
S214080ED0214634484FEA18478DF812208DF81380BB
S214080EE08DF811708DF81030DFF8D8A0C84704A91F
S214080EF004222C48D04718B10F2007B0BDE8F08F61
S214080F00DFF8C4B0CBF800008EB1DFF8C080254FFC
S214080F100DF10E013846C047DBF800309DF80E206C
S214080F2001339E42CBF8003005F8012BF0D8214655
S214080F301C48204FB84721461A48C84706230DF1D3
S214080F40180909F8093D494601221648D0471A4D9E
S214080F50144E4FF0010801E08DF80F803046A84780
S214080F600028F9D0012249460E48D0470D4E4FF0CA
S214080F70FD0801E08DF80F803046A8470028F9D014
S214080F80494601220748D047064E02E02146304629
S214080F90B8473046A8470028F8D0002007B0BDE874
S214080FA0F08F00BF0080094020A1070041C5080057
S214080FB00DC60800FDC5080005C6080035C50800AA
S214080FC0F5C508007DC50800A40A0720C5C50800A1
S214080FD0004B184735150800004B184779150800C8
S214080FE0004B1847BD150800004B184701160800A7
S214080FF02DE9F043154DA5B0154C064668460F4634
S21408100090469946A0472C7824B1012C0DD025B0DF
S214081010BDE8F08300F17002314620460D4B984734
S21408102001232B7025B0BDE8F08322464B46414687
S2140810303846094CA047094B3146002098470128F6
S21408104004BF00232B7025B0BDE8F083AB0A072049
S2140810508D3C08002160080049610800E16008002E
S21408106070B50F4D2C7814B1012C08D070BD00F166
S214081070F4020C4B0220984701232B7070BD0E46D5
S214081080104619460322049B074CA047074B3146D7
S21408109002209847012804BF00232B7070BD00BFAC
S2140810A0A80A07202160080049610800E1600800D6
S2140810B070B50F4D2C7814B1012C08D070BD00F512
S2140810C080720C4B0320984701232B7070BD0E4688
S2140810D0104619460422049B074CA047074B314686
S2140810E003209847012804BF00232B7070BD00BF5B
S2140810F0AA0A07202160080049610800E160080084
S21408110070B50F4D2C7814B1012C08D070BD00F5C1
S21408111086720C4B0420984701232B7070BD0E4630
S214081120104619460522049B074CA047074B314634
S21408113004209847012804BF00232B7070BD00BF09
S214081140A90A07202160080049610800E160080034
S21408115010B50121054C0020A04700210846A047ED
S2140811602346BDE81040012100201847C5BA0800EC
S2140811702DE9F04F4B2140F24525274BDFF8C0B04C
S214081180DFF8C090254A264F264EDFF8BC80264852
S214081190ABF800501980254D2549A7B0254CC9F84D
S2140811A00020254AC8F8040078603160296002A843
S2140811B0224972606A600193C8F800403C6088471C
S2140811C0019B0446DFF884A01888D047C4F880003E
S2140811D0BBF80000D047D9F800A0D7F804C0D8F864
S2140811E00490D7F800E0D8F80080776831686A6815
S2140811F02B68C4F88400C4F888A0C4F85C90C4F8C7
S2140812005880C4F854C0C4F850E0E766A166626621
S214081210236627B0BDE8F08FB20A0720BE9F1A3FA4
S214081220240B07201C0B07201B2FE5402C0B072040
S21408123000001841751388C2A01A0F3F8D3C08009D
S214081240B00A0720AC0A0720140B0720D9FA0800B2
S2140812502DE9F04F0024514B5149524F83B0DFF827
S21408126074C1514819605F600093504B504ADFF8CC
S21408127068B1DFF868A14F4DDFF86481DFF8649144
S214081280C3F800C058604C4BDFF85CE14B4E116069
S21408129057604B494B4FCBF80040CAF80040CBF894
S2140812A00450494CCAF80450484DC8F80400C9F818
S2140812B00400586046480192C8F800C0C9F800C043
S2140812C0C3F800C0C6F800E07160C7F800E07960AF
S2140812D0C4F800E06160C5F800E069608047019ADC
S2140812E0009BDFF808E15168C0F828E1D3F804E06D
S2140812F01B68DBF800C01268C0F884108367DBF848
S2140813000410D8F80430C0F88020C0F87CE0DAF87A
S2140813100420D9F804E0DAF800A0D9F80090D8F844
S2140813200080C0F89410C0F890C07968D6F804C059
S214081330C0F89C303F68204B3668C0F88C20C0F850
S214081340A4E0C0F89880C0F8B410C0F888A0C0F828
S214081350A090C0F8B070D3F80480C0F8ACC0D3F83A
S21408136000C0124BC0F8A860D3F804E01F686E6887
S214081370296862682368C0F8C480C0F8C0C0C0F88E
S214081380BCE0C0F8B870C0F8D460C0F8D010C0F898
S214081390CC20C0F8C83003B0BDE8F08F040B072097
S2140813A0F25A2FC43108044131084C3FCC0A0720B2
S2140813B0F40A07207368113FC40A0720DC0A0720CE
S2140813C07593A040D40A0720EC0A0720E40A0720F1
S2140813D0A53C0800311999C1FC0A07200C0B072008
S2140813E0BC0A0720B40A07200000C0410080094450
S2140813F0F0B5A5B068460F4B98470F4DB0F87C601F
S214081400C26D846D0D4BD0F854E05A601C600C49D0
S2140814102E80076DC66E0B4A856E446E0A4B006EAC
S214081420C1F804E00F60566015605C60186025B06F
S214081430F0BD00BF8D3C0800B00A0720140B07203B
S214081440240B07201C0B07202C0B0720F8B52C4B69
S21408145098472C4AD0F88010D0F884401160546021
S214081460866FC56FD0F888E0D0F88C40D0F89070BA
S214081470254B2649264A1E605D60D0F89460D0F851
S2140814809850C1F800E04C60D0F8A0E0D0F89C4036
S2140814901760204BD0F8A4701F4956601D60D0F81E
S2140814A0A8605C60D0F8AC50D0F8B0401B4AC1F8D1
S2140814B000E01B4B4F60D0F8B4101C6059601660F3
S2140814C0184B5560D0F8B820D0F8BC401A605C605D
S2140814D01549D0F8C0E0D0F8C470D0F8C860134AF0
S2140814E0D0F8CC50D0F8D040114BD0F8D400C1F882
S2140814F000E04F60166055601C605860F8BD00BF7D
S214081500A53C0800F40A0720040B07200C0B07204C
S214081510FC0A0720BC0A0720B40A0720DC0A0720B2
S214081520D40A0720CC0A0720C40A0720EC0A07209A
S214081530E40A072010B50C4B86B00446984790F985
S214081540C03003A8002BB4BF084A094A536812687B
S2140815500593049206AA234612E90600054C009055
S2140815601220A04706B010BD693C0800F40A072000
S214081570040B0720D1D0080010B50C4B86B00446E3
S214081580984790F9C03003A8002BB4BF084A094A08
S214081590536812680593049206AA234612E90600C1
S2140815A0054C00901420A04706B010BD693C080002
S2140815B0B40A0720BC0A0720D1D0080010B50C4B87
S2140815C086B00446984790F9C03003A8002BB4BFED
S2140815D0084A094A536812680593049206AA2346DD
S2140815E012E90600054C00901520A04706B010BD6D
S2140815F0693C0800C40A0720CC0A0720D1D0080096
S21408160010B50C4B86B00446984790F8C03003A82F
S2140816105B064CBF084A094A536812680593049249
S21408162006AA234612E90600054C00901120A0479A
S21408163006B010BD693C0800140B0720240B0720D1
S214081640D1D0080038B59AB101280CBF0A4D0B4D09
S21408165008460B4B1446984769680A4B984729680A
S214081660094B9847094B984700232080184638BDF1
S2140816704FF0FF33FAE700BF1C0B07202C0B0720A0
S214081680E1FA080089FB080079F9080041FF08001C
S21408169038B59AB101280CBF0A4D0B4D08460B4BBE
S2140816A01446984769680A4B98472968094B98472B
S2140816B0094B984700232080184638BD4FF0FF3363
S2140816C0FAE700BFFC0A07200C0B0720E1FA08001F
S2140816D089FB080079F9080041FF080038B59AB177
S2140816E001280CBF0A4D0B4D08460B4B144698476D
S2140816F069680A4B98472968094B9847094B9847E1
S21408170000232080184638BD4FF0FF33FAE700BFA5
S214081710D40A0720DC0A0720E1FA080089FB08003B
S21408172079F9080041FF080038B59AB101280CBFBE
S2140817300A4D0B4D08460B4B1446984769680A4BEA
S21408174098472968094B9847094B984700232080F3
S214081750184638BD4FF0FF33FAE700BFE40A072003
S214081760EC0A0720E1FA080089FB080079F9080066
S21408177041FF080010B5034B9847BDE81040024BE0
S214081780184700BFD9FA0800D10F080010B5034B58
S2140817909847BDE81040024B184700BFD9FA080022
S2140817A0D90F080010B5034B9847BDE81040024B08
S2140817B0184700BFD9FA0800E10F0800004B184781
S2140817C0855E0800004B1847B95E0800004B1847AE
S2140817D0E95E08002DE9F04F1F4687B09DF84830AF
S2140817E0012F039305469346BDF84060DDF8448014
S2140817F0139CDDF850A09DF854309DF8589051D0B1
S214081800B14244D05DB1B9F1000F08D10020314B88
S21408181098470020304B07B0BDE8F04F18472F4ACE
S2140818203146184652F825304246984758462C4BBB
S214081830984786B2B8F800102346CDF800A003985B
S2140818403246DFF8ACB0D847238801332380B9F195
S214081850000FDBD02388FBB19AF800202149012A23
S214081860B8F8008031F8150026D0A6EB08028242A8
S21408187015DA4046013B9BB223800BB91FB340469E
S214081880194B53F8253007B0BDE8F04F18475846AF
S214081890134B984786B2DAE707B0BDE8F08F361ADA
S2140818A0B0B2E7E7114A384652F825200593049166
S2140818B09047059B0499A3E7A8EB06028242D8DB6B
S2140818C00644B0B2D6E7094B384653F82530984751
S2140818D04046D5E7D90F0800E10F08006C07090055
S2140818E041FF080084070900780709006007090017
S2140818F091330800F0B5002500238BB03A4A2846F5
S214081900ADF80030ADF8023090472846374B984778
S214081910374B07A89847374B04A89847364B01A873
S2140819209847364E089A0DF102016846344B3260E5
S21408193098479DF81C0010F0010412D13768314B07
S214081940314938469847314E642230603049384627
S214081950304B984700282AD130682F4B98470BB051
S214081960F0BDBDF80020BDF802302C4803FB02F39A
S21408197080FB0320DB17C3EB6010294B9847294BE5
S2140819800446012098473068274B1F499847034666
S2140819901E4D0146642220461E4E2B60B047012885
S2140819A00CD02C6820461C4B98470BB0F0BD1D4B3E
S2140819B02046356098471D4B1C70CDE79DF81030C3
S2140819C02C60DB0703D50222184B1A70EAE79DF84D
S2140819D0043013F0010303D00422144B1A70E1E715
S2140819E0124A1370DEE700BFD90F0800E10F08009F
S2140819F09D21080045220800C5220800480B07203C
S214081A007124080075F908000000C8423C0B07203E
S214081A100000FA4315B90800D10F08001F85EB51DE
S214081A20E1FA0800BD17080079F90800380B072006
S214081A30002310B5244A94B000208DF801308DF8A4
S214081A4002308DF803309047204B07A89847204B64
S214081A5004A898471F4B01A898471F4C0DF102028F
S214081A600DF103030DF101010DA8A0471B4B0AA8B1
S214081A7098479DF81030DA0703D59DF81C30DB0729
S214081A8016D4174B17490598984764221649174BDA
S214081A900446984720B92046154B984714B010BD01
S214081AA0144B002098470122134B00241A70F2E7C3
S214081AB00120104B984703210F4A02200F4B117044
S214081AC0984714B010BD00BFE10F08009D2108001C
S214081AD045220800C5220800B1230800452308004F
S214081AE075F908000000C8420000FA4315B9080056
S214081AF0D90F0800C5170800380B0720996008009A
S214081B000023002130B599B02A4A0EA807918DF80F
S214081B1015308DF816308DF817309047264B0BA8E1
S214081B209847264B08A898470DF11A01244B06A893
S214081B3098479DF82C30D9071ED59DF83830DA0717
S214081B401AD5204B1B78012B1BD011AC0DF11703AF
S214081B500DF116020DF1150120461B4DA84718ABCE
S214081B6013E907008DE8070007AD94E80F00039512
S214081B70164CA04719B030BD0222154B1A7019B082
S214081B8030BD9DF82030DB07DFD50C9DBDF818006A
S214081B90104CA047294664220F4B98470128D4D1F9
S214081BA0BDF81800A0470D4B98470422084B1A703A
S214081BB0E5E700BF9D21080045220800C522080069
S214081BC09D240800340B0720B1230800F5240800DC
S214081BD0380B0720D9FA080015B90800D90F0800ED
S214081BE070B58AB0224B07A89847224B04A8984796
S214081BF0214B01A898470DF10201204B68469847EB
S214081C009DF8043002981E4AD907106003D59DF83F
S214081C101030DA071DD41B4B1B4998471B4C05464A
S214081C2020601B4EBDF80000B04764220146194BE1
S214081C3028469847C8B1BDF80000B0470422164B9E
S214081C4020601A70154B98472068154B98470AB0BD
S214081C5070BD9DF81C30DB07DDD50420114B984776
S214081C6007220D4B1A700AB070BD2068EAE700BF5D
S214081C709D21080045220800C5220800C92408003E
S214081C80440B072075F908000000C842400B0720DF
S214081C90D9FA080015B90800380B0720D90F08002C
S214081CA0E10F080099600800F0B50022002499B0FA
S214081CB0424B0EA807928DF815408DF816408DF801
S214081CC0174098473E4B0BA898473E4B08A898479E
S214081CD00DF11A0106A83C4B98479DF82C003B4D81
S214081CE0099E10F001002E600FD0394F3B78012B6B
S214081CF03AD0002B2DD09DF820300020DA0709D4E2
S214081D000422344B1A7019B0F0BD04469DF82030F2
S214081D10DA07F5D59DF83830DB07F1D5002C40D129
S214081D20002832D111AC0DF117030DF116020DF192
S214081D3015012046284DA84718AB13E907008DE87B
S214081D40070007AD94E80F000395244CA04719B088
S214081D50F0BD286864222249224B9847A0F101006A
S214081D60B0FA80F04009D1E71F4BBDF81800984735
S214081D701C4B314664229847A0F10104B4FA84F457
S214081D803B786409002BB6D1E3E700230324114906
S214081D901846164A07930C7090470220144B98472B
S214081DA0B1E7BDF81800104B9847104B9847062126
S214081DB0084A04200E4B11709847A4E79D21080096
S214081DC045220800C5220800C9240800440B07203D
S214081DD0340B0720380B0720B123080031250800EC
S214081DE000002F4415B90800D9FA0800E10F0800CA
S214081DF09960080000232DE9F04798B0384A0EA8E5
S214081E008DF815308DF816308DF817309047354B0D
S214081E100BA89847344B08A898479DF83830334D98
S214081E20099AD9072A6003D59DF82C30DA0752D4C8
S214081E3002222F4B1A702F4B1B78D3B12E4E0DF162
S214081E4017090DF116080DF1150711AC4B46424659
S214081E5039462046B04718AB13E907008DE8070057
S214081E6007AD94E80F000395244CA04718B0BDE8CA
S214081E70F0870DF11A01224B06A80DF117090DF18E
S214081E8016080DF1150711AC98471B4E4B464246EF
S214081E9039462046B047DFF880A0BDF81800D0477E
S214081EA064220146174B286898470128CED1164B5E
S214081EB004209847BDF81800D047144B9847BDF83B
S214081EC01800D047124B984705200949114B149A19
S214081ED008701A60CAE79DF82030DB07ABD4A7E77E
S214081EE09D21080045220800C5220800440B07204B
S214081EF0380B0720340B0720B12308006D2508008F
S214081F00C924080015B9080099600800D90F080008
S214081F10E10F08004C0B0720D9FA0800002310B57B
S214081F201A4A92B000208DF805308DF806308DF8E4
S214081F30073090470020164B98470020154B9847C7
S214081F40154B08A89847154B05A89847144B02A8A0
S214081F509847144C0DF107030DF105010DF1060223
S214081F600BA8A047104B4FF083410E98984718B11E
S214081F709DF82030DB0701D412B010BD01200B4BB2
S214081F80984701220A4B1A7012B010BDD90F0800E4
S214081F90E10F0800D10F08009D210800452208001F
S214081FA0C5220800B1230800EDFE0800BD1708008A
S214081FB0380B072010B58AB0184B07A89847184B57
S214081FC004A89847174B01A898479DF80430DA07E5
S214081FD003D59DF81C30DB0715D4134A134B144958
S214081FE010689847134B14490446984730B1134B6A
S214081FF00020984703220024114B1A702046114BE4
S21408200098470AB010BD05210D4A01200B4B1170E8
S214082010984703200C4B98470AB010BD9D2108002E
S21408202045220800C5220800440B072075F9080059
S2140820300000C842C5FE08000000FA43CD17080095
S214082040380B0720E10F0800996008000022014BB2
S2140820501A707047380B072000232DE9F04393B019
S2140820603D4A08A88DF805308DF806308DF80730FB
S21408207090473A4B05A89847394D3A4B02A89847D7
S2140820809DF814302A7803F001039342364E50D058
S214082090364F374C0320A0470320A0470420A0470C
S2140820A00121344B002219700023DFF8DC80324C03
S2140820B088F8002023600DF107030DF106020DF1E4
S2140820C005010BA8DFF8C490C84764220E9920685B
S2140820D02A4B984798B9DFF898900320C8470320FA
S2140820E0C8470420C847264B64220E99206898479C
S2140820F0A0F10100B0FA80F01E4B4009187098F85D
S2140821000020204B53F8223098479DF808109DF879
S21408211014209DF820300E98C1F30001C2F3000287
S214082120C3F3000331702A703B70206013B0BDE81B
S214082130F0839DF80830327803F0010393420B4F82
S214082140A7D19DF820303A7803F001039342A0D136
S214082150094CDFF83480AEE79D21080045220800C8
S214082160350B0720C5220800360B0720370B07203B
S21408217099600800340B07204C0B0720BDB90800EF
S21408218015B908008C070900380B0720B12308008A
S214082190014B1878704700BF380B072038B504463F
S2140821A0264B9847002C41D0054600283ED090F88C
S2140821B0F0212378D20962F341031A46237090F877
S2140821C0F3311F4963F38202227090F8F231D2B2DB
S2140821D0C3F3801363F3C302227090F84C31D2B273
S2140821E003F0010363F30002227090F8C020D0F8D1
S2140821F0B00063F3000285F8C0206060D5F850018F
S2140822008847208195F84C31DB09A37295F9F0319F
S214082210002B0EDB95F8F131002003F00303A3F141
S2140822200303B3FA83F35B09E37238BD4FF0FF305C
S21408223038BD0123E372002038BD00BF693C0800A2
S21408224041FF080038B504461C4B98478CB3054632
S21408225078B390F8F1212378194962F34103237083
S21408226090F8F3312278C3F3C00363F38202227036
S21408227090F8F331D2B2C3F3400363F3C30222707B
S21408228090F84C31D2B2C3F3400363F300022270D5
S21408229090F8C230D2B262F38203D0F8540185F8BF
S2140822A0C230884700232081D5F8B42018466260DB
S2140822B038BD4FF0FF33184638BD00BF693C0800EC
S2140822C041FF080010B504461C4B98478CB380B3F2
S2140822D090F8F1312278C3F3400363F34102227089
S2140822E090F8F331D2B2C3F3801363F382022270FC
S2140822F090F8F331D2B2C3F3001363F3C30222702B
S21408230090F84C31D2B2C3F3800363F30002227014
S21408231090F8C220D0F8B81063F3C30280F8C22041
S2140823206160D0F85801064B98470023208118466C
S21408233010BD4FF0FF33184610BD00BF693C0800BB
S21408234041FF080010B50446094B984764B1034698
S21408235050B1D3F8B02000202260D3F8B4206260D1
S214082360D3F8B830A36010BD4FF0FF3010BD00BFE3
S214082370693C080070B50C4B04460E46154698474F
S21408238090F864314FF0FF30022B237016BFB3FA73
S21408239083F301235B0933702378012B8CBF00235A
S2140823A001232B7070BD00BF693C080000000000C8
S2140823B02DE9F84F284C054691468A469846A04788
S2140823C0D0F8B43204462B60D0F82031234F6B6027
S2140823D090F84C31DFF894B083F01003C3F3001381
S2140823E02B76D0F81C311E4EAB60D0F8B4322B607A
S2140823F0D0F86031EB60D0F86001B84714A3D3E991
S2140824000023D847B0476861B847164F02460B46C0
S21408241000201549B847B047286194F84C31EA6857
S214082420C3F30003C4F8C4228AF8003094F84C3189
S2140824304FF0FF30C3F3400389F8003094F84C316E
S214082440C3F3800388F80030BDE8F88FAFF3008048
S2140824509A9999999999B93F693C080035F2080004
S214082460CDF80800CDD8080000002440DDF20800AA
S21408247038B50446084B0D4698474CB145B1034657
S214082480B3F82C2100202280B3F82E312B8038BDDB
S2140824904FF0FF3038BD00BFA53C080038B50446ED
S2140824A0084B0D4698474CB145B10346B3F834215E
S2140824B000202280B3F830312B8038BD4FF0FF3033
S2140824C038BD00BFA53C080038B50446084B0D4685
S2140824D098474CB145B10346B3F836210020228010
S2140824E0B3F832312B8038BD4FF0FF3038BD00BF0F
S2140824F0A53C080084B010B582B00DF1100E0A4C49
S2140825008EE80F00A04760B10B99049B0091089ACB
S2140825103221064CA047002002B0BDE8104004B0A7
S21408252070474FF0FF30F7E7A53C08006110080039
S21408253084B010B582B00DF1100E0A4C8EE80F006C
S214082540A04760B10B99049B0091089A3221064C6B
S214082550A047002002B0BDE8104004B070474FF016
S214082560FF30F7E7A53C0800B110080084B010B5A6
S21408257082B00DF1100E0A4C8EE80F00A04760B12D
S2140825800B99049B0091089A3221064CA04700201C
S21408259002B0BDE8104004B070474FF0FF30F7E7D0
S2140825A0A53C08000111080070B5084B06460D4604
S2140825B01446984738B1C0F8D862C0F8DC52C0F85C
S2140825C0E042002070BD4FF0FF3070BD693C080047
S2140825D0F8B51D4B984790F8C16090F8F15190F8FF
S2140825E0F04190F8F41190F8F22190F8F33190F851
S2140825F0C27006F06B0605F0FA0504F09F0401F0B9
S214082600FE0102F07F0203F010036FF304176FF366
S21408261045166FF341056FF3C7146FF341016FF367
S21408262086126FF3041380F8C27080F8C16080F8D1
S214082630F15180F8F04180F8F41180F8F22180F822
S214082640F3310020F8BD00BF693C0800002310B530
S2140826508AB002AA0DF107011B4C0DF106008DF891
S21408266007308DF808308DF809308DF80A308DF867
S2140826700B30A0470DF10B030DF10A020DF109010D
S21408268003A8124CA0479DF80930012B08D09DF8E6
S2140826900730012B02D100220D4B1A700AB010BD6C
S2140826A09DF80A30012B03D09DF80B30012BEED194
S2140826B09DF824300022012B0CBF03200220044979
S2140826C0044B08701A70E2E775230800B123080067
S2140826D0560B0720500B072070B500262E4D82B0EB
S2140826E02C788DF80660022C8DF8076030D0012C07
S2140826F040D07CB10026294C294B0DF107020DF17C
S21408270006010DF10500267098472B78032B13D089
S21408271002B070BD234E244B2046984733880133B9
S2140827209BB2022B3380E5D9204B214601209847DF
S214082730032334802B70DDE702229DF806302A70CA
S2140827400BB9012323700122194B1A7002B070BD11
S214082750144C30462388174A013323809047238831
S214082760022BC7D9114B31460420984701232680EF
S2140827702B70BFE70B4C104B304698472388013325
S2140827809BB2022B238004D931460320074B984777
S214082790268000232B70ADE7570B0720560B072023
S2140827A0752308005C0B0720BD170800410C0800BD
S2140827B0500B0720CD170800C517080010B50D4B9D
S2140827C0002098470C4C00210420A0470B4B002003
S2140827D0984700210320A047094B0020984700216E
S2140827E00120A047002000220649074B08701A60FF
S2140827F010BD00BFCD170800410C0800C51708001B
S214082800BD170800560B0720580B072070B5244D37
S2140828102C78022C1BD0012C2CD01CB10022214B6A
S2140828201A7070BD204E214B2046984733880133D6
S2140828309BB2022B3380F1D91D4B214601209847C5
S214082840032300222B70174B34801A7070BD164C69
S21408285000202388174A0133238090472388022BB9
S214082860DCD9134B002104209847012200232A7044
S2140828702380D3E70C4C104B00209847238801335D
S2140828809BB2022B238005D9094B002103209847C9
S21408289000232380002300222B70024B1A7070BD81
S2140828A0570B0720560B07205C0B0720BD170800A0
S2140828B0410C0800CD170800C51708000023F0B51E
S2140828C097B03E4A0CA88DF806308DF807308DF87C
S2140828D008308DF80A308DF80B309047384B09A829
S2140828E09847384B06A89847374B03A898470DF1E2
S2140828F00B020DF10A01354B0DF109009847344CCF
S21408290002AB0DF107020DF106010FA8A0479DF8CE
S2140829105430012B03D09DF83030DB073FD42D4BC5
S21408292098472D4B98472D4D9DF818302A7803F078
S214082930010393422A4E37D02A4C0320A04703208F
S214082940A0470420A0470022274C234B2260984724
S214082950642212992068254B984758B9214F0320BE
S214082960B8470320B8470420B8476422129920685D
S2140829701F4B98471F4B984700229DF818009DF854
S2140829802430129FC0F30000C3F3000328701146DA
S2140829901046194D33702760A84717B0F0BD9DF84C
S2140829A00A30012BBFD1BAE79DF82430327803F0FD
S2140829B001039342C0D10C4CCAE700BF9D21080012
S2140829C045220800C522080045230800752308008C
S2140829D0B12308000D2808004D200800550B0720D5
S2140829E0540B072099600800580B0720BDB908004B
S2140829F015B9080059200800A92508002DE9F04F48
S214082A0000249DB0514B12A88DF826408DF827401B
S214082A108DF82840ADF82C40ADF82E408DF82A40A9
S214082A208DF82B4098474A4B0FA89847494B0CA857
S214082A3098470DF12E01484B0BA898470DF12B022D
S214082A400DF12A01454B0DF1290098479DF82A30CB
S214082A500DF12702012B08BF414B0DF1260108BFD7
S214082A601C7015A80AAB3F4CA0479DF86C30002B8D
S214082A7066D001209DF848309DF8528013F0010575
S214082A8018BFBDF85050DFF804A103400690029026
S214082A90354E364C3648374FBAF80010139A049617
S214082AA0039401900095CDF814800020B8474FF0A5
S214082AB0000E01209DF83C302F4E13F0010418BF7D
S214082AC0BDF84440DFF8C890CDF808E00496DFF873
S214082AD0C4E02A4E109AB9F8001003400690CDF8C4
S214082AE00CE00196CDF814800094B84701204FF00A
S214082AF0000E9DF83030069013F0010603EA000336
S214082B001F4818BFBDF83860DFF88CB0CDF808E06D
S214082B100490DFF888E01B480D9A0190CDF81480E1
S214082B20BBF800100096CDF80CE00220B847ABF8CA
S214082B300060AAF80050A9F800401DB0BDE8F08F64
S214082B40114B98471DB0BDE8F08F00BF9D210800C7
S214082B5045220800C52208007124080075230800CD
S214082B60560B0720B1230800510B07206A0B0720D5
S214082B70640B0720D5170800520B0720660B0720A2
S214082B80530B0720680B07200D2808005E0B07204C
S214082B90600B07206C0B0720620B07206E0B0720C4
S214082BA00021024A024B1170184700BF560B072037
S214082BB04D200800024A034B127853F82230184773
S214082BC0560B0720AC070900014B1878704700BF62
S214082BD0560B0720004B18479121080000200022BA
S214082BE00249034B08701A60704700BF560B07204F
S214082BF0580B0720004B1847D125080000B585B0AC
S214082C0001A8034B98479DF80F0005B05DF804FB34
S214082C109D210800014B1878704700BF500B07200D
S214082C200122014B1A707047500B072010B50A4B4B
S214082C3098470A4B984738B9094B9847094B98471D
S214082C40094B9847094B9847094B9847094B9847AB
S214082C50BDE81040084B1847F52F0800695C0800C7
S214082C6069670800C96A0800711108004D5F080006
S214082C70BD3908008D5D08005933080010B50A4BA9
S214082C8098470A4B984738B9094B9847094B9847CD
S214082C90094B9847094B9847094B9847094B98475B
S214082CA0BDE81040084B1847DD2B0800E15C08001B
S214082CB0956708000D6B0800511208007D5F080034
S214082CC09D380800A95D080059330800004B1847CE
S214082CD0693C080070B5154B98470021044690F8E3
S214082CE04C01134A00F00806124BC0F3C00094F8D3
S214082CF06451117098478EB194F84C3113F0200344
S214082D0009BF032101230C4A117094F8C0200B490F
S214082D1063F3451284F8C020C4F8D012012D04D8F5
S214082D2000230549064A0B70138070BD693C0800ED
S214082D30720B0720515E0800730B0720000070C155
S214082D407E0B0720F8B5204B9847204C05460020F8
S214082D50A0470020A0471E4B002098471D4B1A7816
S214082D601AB31D4C95F84C1122686FF3C301092A53
S214082D7085F84C1102DC01322260F8BD0026642278
S214082D80D5F8BC101548164F1E702660B84701289F
S214082D9095F8C0300ED043F00803124A85F8C030C4
S214082DA090470122104B1A70F8BD01200A49187086
S214082DB00A60F8BD0D4A66F3C3031070012285F851
S214082DC0C030094B1A70F8BD693C0800515E08000F
S214082DD0E90F0800700B0720780B07200000204139
S214082DE015B90800CD320800720B0720730B0720B0
S214082DF000222DE9F04782B002AD234B45F8042D9A
S214082E009847224B0446D0F85C019847204B80B27E
S214082E10984719A3D3E90023DFF89C80C04718A376
S214082E20D3E900231B4EB0471B4FB8471B4A1C4B21
S214082E301060064698471B4B94F86491D4F89CA2F9
S214082E4098470022184BC047B8472B46C4F8C0021C
S214082E50524631463220154DA847B9F1010F07D81A
S214082E60002303221248134903600B7084F8642178
S214082E7002B0BDE8F08700BFFCA9F1D24D62503F12
S214082E809A9999999999B93F693C080041FF0800B1
S214082E9011F2080079EF0800CDF80800740B072037
S214082EA035F20800C9D7080000002440F10F0800D2
S214082EB0780B0720730B0720DDF208002DE9F04396
S214082EC03F4B83B0984790F84C61054616F00803C8
S214082ED090F864811DD190F8C0003A493A4A63F3E5
S214082EE0C30016F0200485F8C0000B6013701DD0D0
S214082EF00024364F0C601470B8F1010F05D8002373
S214082F001C463049304A0B6013703C8003B0BDE85D
S214082F10F08390F8C03043F0080380F8C030B3065A
S214082F203DD42B4BD5F85C01984784B2274F3B8895
S214082F30A34217D0D5F8BC00254B9847254DDFF897
S214082F40A8902A46A9F800002146234BC6F380100D
S214082F509847224B2988B9F8002000930120204B77
S214082F60204DA8471E4A1388002BC5D01B49097850
S214082F70012917D01C4D174928880988461A312E6A
S214082F8017DD323880B22880013B9BB213800BB91C
S214082F9008462980154B9847154B9847ACE70949CA
S214082FA0094AA5E70B49104D098828880E1A312EBC
S214082FB002DC29800846E7E7323080B22880E3E75B
S214082FC0693C0800780B0720730B07207E0B072048
S214082FD041FF0800800B072045160800710B0720E4
S214082FE0820B0720913308007C0B0720D9FA0800CB
S214082FF0E90F080000230249024A0B601370704765
S214083000780B0720730B072010B50024054A2046C6
S214083010054B14709847054B214620469847044BA5
S2140830201C8010BD730B0720515E0800410C080079
S2140830307E0B0720024A034B127853F822301847B3
S214083040730B0720BC070900014B1878704700BFB0
S214083050730B0720014B1878704700BF720B0720C8
S2140830600122014B1A707047720B0720704700BF89
S2140830700122014B1A707047840B072010B5054BC8
S21408308098470446044B9847044B98470CB9044B9A
S2140830901C7010BD21330800BD2708000930080041
S2140830A0840B072010B5254B82B09847244B04465E
S2140830B0684698479DF804305B0706D44CB1012C47
S2140830C030D0022C23D002B010BD1E4B98471E4BA2
S2140830D098471E4B98470128F5D11D4B984701285D
S2140830E0F1D11C4B98471C4B98471C4B98471C4BD8
S2140830F098471C4B98471C4B98479DF8043013F08C
S214083100040318D1194A1A4C1370A047DBE7104B72
S21408311098470128D7D10F4B9847124B9847144B1E
S2140831209847D0E7094B98470128CCD10C4B9847CD
S2140831300F4B9847C7E70E4CA047E6E72133080031
S214083140FD32080061300800212C080055300800C0
S214083150152C0800F52B0800F15B0800715D0800C7
S2140831602D2C08007D2C0800753A0800840B0720D3
S2140831701933080070B5002482B01D4E02A81D4BF6
S21408318000F8014D984733681B4A0133336090476F
S2140831901A4B98471A4D21460620A847214607206D
S2140831A0A84721460220A84721460320A8472146CB
S2140831B00120A84720460121A84733680A2B05DDC9
S2140831C09DF8074024B101220E4B1A7002B070BD5C
S2140831D002210C4A0C4B0120117098472146062004
S2140831E0A84721460720A847346002B070BD00BF34
S2140831F0880B0720E1320800F52F0800A12B0800ED
S214083200C5BA0800840B0720313308000021024A9B
S214083210024B1170184700BF840B0720A12B08002B
S21408322070B50E4B98470E4B98470E4B0546984779
S2140832300D4B064698470D4C3146024623782846DD
S2140832400B4DA84722780B4B53F8223098470A4B69
S2140832509847BDE87040094B184700BF213308005F
S21408326049300800C92B0800D52B0800840B072016
S2140832706D330800D007090035300800B52B080064
S21408328008B5044B984790F8C1306FF3410380F8AF
S214083290C13008BD693C080008B5084B984790F847
S2140832A0C130074A43F0A00380F8C1309047054B69
S2140832B098470122044B1A7008BD00BF693C0800F5
S2140832C0BD27080009300800840B07200422014B9C
S2140832D01A707047840B0720004B1847FD2B080010
S2140832E010B5054B0446984790F879300020C3F38C
S2140832F04013237010BD00BF693C080010B5054B8D
S2140833000446984700F5F870D0E90023C4E900237E
S214083310002010BD693C0800004B1847793C08009F
S21408332008B5024B984790F8640108BD693C080048
S21408333010B50446074B9847A4F10104B4FA84F480
S214083340034690F8F421640964F3820283F8F421B2
S214083350002010BD693C080008B5034B98470323B6
S21408336080F8643108BD00BF693C080010B5002429
S21408337060F3070461F30F2462F31744034A63F308
S2140833801F649047C0F8E842184610BD693C08001C
S21408339070B50128A1EB02040CBF32204FF4FA7076
S2140833A0002C1D46049B14DD0126A4B284421E7020
S2140833B00CD3B4FBF0F0094B9847094C0022094B94
S2140833C0A047094B984780B2288070BD0120288006
S2140833D070BD541A0026A4B2E8E700BF11F2080030
S2140833E079EF08000000E03F8DF80800113808B5AE
S2140833F0062808D8DFE800F00E13181D0904040094
S21408340005200E4B9847002008BD04200B4B984714
S214083410002008BD0020094B9847002008BD012061
S214083420064B9847002008BD0220044B984700200A
S21408343008BD0320014B9847002008BD410C080032
S21408344008B53A2822D8DFE800F0A7A3736F6B67A1
S214083450635F5B57534F4B47433F3B212121212155
S2140834602121212121212121212121212121213729
S2140834708F8B871E837F7B779F272733972B2B235C
S2140834802F232F939B001120454B9847002008BDFB
S2140834900420434B9847F9E70020414B9847F5E747
S2140834A003203F4B9847F1E705203D4B9847EDE74B
S2140834B001203B4B9847E9E70C20394B9847E5E74E
S2140834C00B20374B9847E1E71620354B9847DDE742
S2140834D00720334B9847D9E70A20314B9847D5E75A
S2140834E009202F4B9847D1E708202D4B9847CDE762
S2140834F00A202C4B9847C9E709202A4B9847C5E766
S2140835000820284B9847C1E70720264B9847BDE771
S2140835100620244B9847B9E70520224B9847B5E77D
S2140835200420204B9847B1E703201E4B9847ADE789
S21408353002201C4B9847A9E70D201A4B9847A5E789
S2140835400C20184B9847A1E71320154B98479DE782
S2140835501220134B984799E71020114B984795E788
S21408356014200F4B984791E70D200D4B98478DE791
S21408357006200B4B984789E70220094B984785E7B2
S2140835801720074B984781E70B20064B98477DE79F
S2140835900120044B984779E70020024B984775E7C7
S2140835A0750408004504080010B50C4682B001A949
S2140835B0054B984722469DF80610BDF80400034BB5
S2140835C09847002002B010BDE9090800BD0A0800A7
S2140835D0004B1847ED33080030B583B00D46144647
S2140835E001A90DF10202064B9847064B0198984729
S2140835F028600020BDF80230238003B030BD00BF2D
S21408360041340800E1FA080030B583B00D46144688
S21408361001A90DF10202064B9847064B01989847F8
S21408362028600020BDF80230238003B030BD00BFFC
S21408363041340800E1FA080008B50146054B9847EA
S21408364018B9034603F0010008BD4FF0010303F064
S214083650010008BD15FF080038B520F000452846CB
S2140836600A4B0B494FF00104984720B92846094BE6
S2140836700749984720B184F0010000F0010038BDE2
S214083680044684F0010000F0010038BD15FF08006C
S214083690FFFF7F7FD9FE080070B5002482B002AB1A
S2140836A023F8064D0E46154601A91A46044B9847B8
S2140836B02046019ABDF8023032802B8002B070BDD9
S2140836C0413408002DE9F04F01280CBF704B714BB0
S2140836D091B09A6CD3F80090D3F804A09868D9688B
S2140836E01D695C699F69DE69D3F838C0D3F83CE089
S2140836F0D3F840B0D3F844800192DA6C00921A6D81
S21408370005925A6D04929A6D0392DA6D02921A6EB9
S21408371009925A6E07929A6E0892DA6E06921A6F95
S2140837200A925A6F0B929A6F0C92D3F880200D92D9
S214083730D3F884200E92D3F88830574A0F93B2F8FD
S214083740C031062BA2F8D8313ED0072B41D0082B23
S21408375044D0092B33D00A2B45D00B2B46D00C2B44
S21408376047D00D2B48D00E2B4DD00F2B4ED0102BFC
S2140837704FD0112B50D0122B51D0132B3FD0142BD7
S21408378051D0152B53D0162B55D0172B57D0182B96
S21408379059D0192B5BD01A2B5DD01B2B5FD01C2B56
S2140837A061D01D2B63D01E2B65D01F2B67D0202B16
S2140837B069D0212B04BF0F9BC2F8D43101E0C2F8B0
S2140837C0D45111B0BDE8F08FC2F8D41111B0BDE8DD
S2140837D0F08FC2F8D40111B0BDE8F08FC2F8D4411A
S2140837E011B0BDE8F08FC2F8D461EAE7C2F8D47128
S2140837F0E7E7C2F8D4E1E4E7C2F8D4C1E1E7019B01
S214083800C2F8D431DDE7C2F8D481DAE7C2F8D4B119
S214083810D7E7C2F8D4A1D4E7C2F8D491D1E7009B81
S214083820C2F8D431CDE7029BC2F8D431C9E7039B6E
S214083830C2F8D431C5E7049BC2F8D431C1E7059B6A
S214083840C2F8D431BDE7069BC2F8D431B9E7089B65
S214083850C2F8D431B5E7079BC2F8D431B1E7099B63
S214083860C2F8D431ADE70A9BC2F8D431A9E70C9B5D
S214083870C2F8D431A5E70B9BC2F8D431A1E70D9B5B
S214083880C2F8D4319DE70E9BC2F8D43199E700BF41
S21408389048120720B8110720900B0720F0B500241F
S2140838A03A4B4FF001364FF0834593F84C014FF0F2
S2140838B0030E374A374F00F0E80064F3C710C3F822
S2140838C0F020C3F8C0400022C3F8D840C3F8AC7153
S2140838D04FF08E444FF07E572F49C3F8D460C3F894
S2140838E060512E4E2E4DC3F8941183F84C012D4985
S2140838F02D4883F864E1C3F89861DFF8BCE0C3F8A4
S214083900F460C3F89C51294EC3F8F850284DC3F804
S2140839102021C3F85021C3F85421C3F85821C3F80E
S214083920B020C3F8B420C3F8B820C3F8BC20C3F846
S214083930A821C3F86C21C3F87421C3F80421C3F87E
S2140839407001C3F87801C3F81C11C3F89011C3F8C6
S214083950EC10C3F80841C3F8C421C3F8CC21C3F857
S214083960C841C3F8D041C3F88812C3F87812C3F820
S21408397084E2C3F88072C3F88C62C3F87C5203F101
S21408398074000C4ABDE8F040104700BF900B0720B3
S2140839900000C0400000FA449A99A9400000784107
S2140839A000001842000020C10000C8420000704213
S2140839B00000484211D4080000002042F0B5284B09
S2140839C04FF08E4593F8C02093F84C0142F002025F
S2140839D002F0970200F09F006FF382026FF3C300B5
S2140839E00021032783F8C02083F84C0100224FF0FB
S2140839F07C5093F8C1401B4E04F0FE046FF341045C
S214083A00DFF86CE083F8C140C3F80051164C174D38
S214083A1083F86471C3F8A4E1C3F8DC40C3F88041B6
S214083A20C3F82441C3F8E060C3F88461C3F8E450DF
S214083A30C3F88851C3F8E800C3F88C01C3F8FC2023
S214083A40C3F85C21C3F8A021C3F8282183F8901294
S214083A5083F8911283F8921283F89312F0BD00BF90
S214083A60900B07200000A0C1000048C2000078C1E3
S214083A700000C842F8B55D4B98475D4B002193F8A7
S214083A804C6193F8C04006F09F066FF3C30644F0F7
S214083A90020483F84C6104F09704564E6FF38204D0
S214083AA04FF08E4C83F8C040C3F8A461524C4FF0D8
S214083AB07C5601204FF0030EC3F8DC40C3F8804163
S214083AC0C3F82441002430224FF4805793F8C1509D
S214083AD0C3F800C105F0BC0561F3451583F8C1506D
S214083AE0464DDFF828C1C3F8E450C3F88851C3F838
S214083AF0E860434DC3F88C61424E83F864E183F86E
S214083B00901283F8911283F8921283F89312A3F80E
S214083B10D412C3F8E0C0C3F884C1C3F8FC40C3F8A5
S214083B205C41C3F8A041C3F8284183F8D40083F861
S214083B30D50083F8D60083F8D700C3F8C450C3F876
S214083B40C85083F80CE1C3F8B061DFF8C4E02E4E25
S214083B50C3F8CC50C3F8D050C3F8100183F814014A
S214083B6083F8151183F8160183F8AC1083F86811EA
S214083B7083F8B811C3F8BC41C3F8D441C3F8B4E11C
S214083B80706386F8390086F83A1086F83B00A3F882
S214083B90C071A3F8D87183F8DC2183F8DD2183F897
S214083BA0DE2183F8DF2183F8E02183F8E12183F81A
S214083BB0E22183F8E32183F8E42183F8E52183F8FA
S214083BC0E62183F8E72183F8E821C3F8304183F833
S214083BD0E92183F8EA2183F8EB2183F8EC2183F8BE
S214083BE0ED21C3F82C5183F83F12F8BD9D38080024
S214083BF0900B07200000C842000048C2000078C1A9
S214083C00000020C20000F0C1301107200000A0C14B
S214083C1000008C4210B40F4B0F49104A104C114844
S214083C20DC67C3F88440C3F88000C3F88800C3F88C
S214083C308C10C3F89410C3F89C10C3F8A410C3F8EB
S214083C409020C3F89820C3F8A020C3F8A82010BC7A
S214083C50704700BF900B0720E7FFF6FF32004600CC
S214083C60CEFFECFF3C00460000487047900B07204C
S214083C700048704730110720034B93F8F4216FF380
S214083C80820283F8F4217047900B072010B5034C86
S214083C9090222146024B9847204610BDB8110720AF
S214083CA05D03090000487047800E0720252815D0B8
S214083CB0262819D028281DD0292809D02A281FD018
S214083CC02B2823D0272804BF124BC3F82C11704783
S214083CD0104BC3F8CC10C3F8301270470D4BC3F81E
S214083CE0D010C3F8241270470A4BC3F8C410C3F8A0
S214083CF028127047074BC3F8C810C3F82C12704731
S214083D00044BC3F8D010C3F834127047014BC3F8FD
S214083D1038127047900B0720272810B40C480BD091
S214083D20D0F88C420C60D0F884121960D0F888322B
S214083D3010BC002013607047D0F87C420C60D0F8A6
S214083D407C121960D0F8783210BC002013607047D7
S214083D50900B0720252830B409D0262823D02828F9
S214083D603ED0292877D0272856D030BC7047A1F1F6
S214083D700101B1FA81F1464C490994F8F201A3F120
S214083D800103B3FA83F361F3C30001465B0963F3E7
S214083D900411012A84F8F211E7D1CBB243F02003CC
S214083DA084F8F231E1E7A3F10103B3FA83F3384C60
S214083DB05B0994F8F201A1F10101B1FA81F163F30C
S214083DC0C7100346490961F38613012A84F8F231BD
S214083DD0CBD194F8F33143F0010384F8F331C4E708
S214083DE0A1F10101B1FA81F1294C490994F8F301CE
S214083DF0A3F10103B3FA83F361F3410001465B09BB
S214083E0063F38201012A84F8F311AED1CBB243F0F2
S214083E10080384F8F331A8E7A3F10103A1F101012F
S214083E20B3FA83F3B1FA81F119485B0990F8F451B3
S214083E3090F8F341490963F3000561F3C714012AB2
S214083E4080F8F45180F8F3418FD1EBB243F00203C7
S214083E5080F8F43189E7A3F10103B3FA83F30C4C35
S214083E605B0994F8F301A1F10101B1FA81F163F35A
S214083E7045100346490961F30413012A84F8F3310F
S214083E807FF473AFDBB243F0400384F8F3316CE79A
S214083E90900B0720014B93F830007047301107202D
S214083EA030B40546034C0FCC28606960AA60EB6006
S214083EB030BC7047400C072000487047AC0C072001
S214083EC000487047C40C072000487047500C07206D
S214083ED000487047500C072030B40546064C0FCCF7
S214083EE028606960AA60EB600FCC28616961AA61E6
S214083EF0EB6130BC704700BF6C0C072030B4054639
S214083F00034C0FCC28606960AA60EB6030BC704731
S214083F108C0C072030B40546034C0FCC286069602B
S214083F20AA60EB6030BC70479C0C072000487047BE
S214083F30DC0C072000487047F80C0720004870473C
S214083F40100D0720004870476C0C07200048704783
S214083F508C0C072000487047300D07200048704733
S214083F60480D0720004870476C0D0720004870472A
S214083F70750D072010B403784D2B0CD0002214467C
S214083F80204B93F8F21183F83F4262F3820183F8DC
S214083F90F21110BC70474378592BEFD183784E2B1B
S214083FA0ECD1C378412BE9D10379522BE6D143797A
S214083FB0492BE3D183794B2BE0D1C3795F2BDDD135
S214083FC0037A4D2BDAD10B784B2BD7D14B78332B82
S214083FD0D4D18B785F2BD1D1CB78432BCED10B792C
S214083FE04F2BCBD14B794E2BC8D18B79442BC5D1CF
S214083FF0CB794F2BC2D10B7A522BBFD10122144654
S214084000BEE700BF900B072030B40546054C0FCC22
S21408401028606960AA60EB6003CC2861696130BCDF
S214084020704700BF300D072000487047540D072022
S214084030F0B405460A4E06F1200734460FCCBC42BB
S21408404028606960AA60EB6006F1100605F11005A5
S214084050F3D107CE28606960AA60F0BC704700BF3D
S214084060880D07200246024B03CB1060516070474C
S214084070640D0720014B93F83E0070473011072067
S2140840800022024B83F83E20704700BF30110720FD
S21408409010B5084C3F212046074B98472146A4F800
S2140840A04000064C4423A446BDE8104000221420D5
S2140840B0604700BF74110720CD01080071BA0800D8
S2140840C010B5084C8B212046074B98472146A4F884
S2140840D08C00064C9023A446BDE8104000224FF4FE
S2140840E0FA70604748120720CD01080071BA080028
S2140840F010B5094C40F253112046084B9847214604
S214084100A4F85401064C4FF4AC73A446BDE810401E
S214084110002240F6C4106047D80F0720CD010800DB
S21408412071BA08002DE9F04FCB4BC5B093F8B8012B
S214084130012800F0EF81002800F0DE81C64BB3F8B6
S214084140C021052A40F2BD84931F1B2B40F2D7845A
S21408415002280CBFC14BC24B222A19680391596822
S214084160019199680491D968059119690691596968
S2140841700791186C9E69D9691F6A5D6AD3F828C0CA
S214084180D3F82CE0D3F83090D3F83480D3F838B08E
S214084190D3F83CA002909C6C586C0894DC6C09948C
S2140841A01C6D0A945C6D0B949C6D0C94DC6D0D94E0
S2140841B01C6E0E945C6E0F949C6E1094DC6E1194BC
S2140841C01C6F12945C6F13949C6F1494DC6F159498
S2140841D0D3F880401694D3F884401794D3F88840D0
S2140841E01894D3F88C401994D3F890401A94D3F8BE
S2140841F094401B94D3F898401C94D3F89C401D9484
S214084200D3F8A0401E94D3F8A4401F94D3F8A8402F
S2140842102094D3F8AC402194D3F8B0402294D3F835
S214084220B4402394D3F8B8402494D3F8BC402594DB
S214084230D3F8C0402694D3F8C4402794D3F8C8408F
S2140842402894D3F8CC402994D3F8D0402A94D3F8AD
S214084250D4402B94D3F8E8402C94D3F8EC402D9413
S214084260D3F8F0402E94D3F8F4402F94D3F8F840BF
S2140842703094D3F8FC403194D3F800413294D3F804
S21408428004413394D3F808413494D3F80C41359458
S214084290D3F810413694D3F814413794D3F818411C
S2140842A03894D3F81C413994D3F820413A94D3F87B
S2140842B024413B94D3F828413C94B3F82C413D94D0
S2140842C0B3F82E413E94B3F830413F94B3F83241E8
S2140842D04094B3F834414194B3F836414294B3F865
S2140842E03841B3F83A3143935B4BA3F8D82100F032
S2140842F08184232A00F09D84242A00F08684252AB7
S21408430000F09B84262A00F0A084272A00F0A384C5
S214084310282A00F0C184292A00F0D8842A2A00F026
S214084320FA842B2A00F01E852C2A00F04E852D2AAA
S21408433000F06F852E2A00F085852F2A00F09A85D2
S214084340302A00F0BA85312A00F0D285322A00F0E9
S214084350E585332A00F0F985342A00F01386352AD5
S21408436000F02A86362A00F04686372A00F05C8651
S214084370382A00F05386392A00F074863A2A00F064
S2140843806B863B2A00F0F1863C2A00F0E8863D2A38
S21408439000F0AF863E2A00F0A6863F2A00F09D86EB
S2140843A0402A01F03B81412A01F05081422A01F05F
S2140843B04781432A01F03E81442A01F03581452A87
S2140843C000F0D887462A00F0CF87472A00F0C6872D
S2140843D0482A00F0BD87492A00F0B4874A2A00F028
S2140843E0AB874B2A00F0A2874C2A00F099874D2A03
S2140843F000F08A874E2A00F081874F2A00F07887D7
S214084400502A00F06F87512A00F06687522A00F07B
S2140844105D87532A00F05487542A00F04B87552AA4
S21408442000F04287562A00F03987572A00F030876E
S214084430582A00F02787592A00F01E875A2A00F0C3
S21408444015875B2A00F00C875C2A00F003875D2A34
S21408445000F0FA8606E000BF900B0720D80F07206A
S214084460800E07205E2A00F0E9865F2A00F0E086C4
S214084470602A00F0D786612A00F0CE86622A00F00D
S214084480C586632A00F0BC86642A00F0B386652ACF
S21408449000F0EC87662A00F0E187672A00F0D687E6
S2140844A0682A00F0CB87692A00F0C0876A2A00F0DD
S2140844B0B5876B2A00F0AA876C2A00F0A1876D2AB8
S2140844C000F092866E2A00F089866F2A00F07E86B3
S2140844D0702A00F073867B2A00F068867C2A00F033
S2140844E05D867D2A00F052867E2A05D1074B084A4B
S2140844F0D3F84C31C2F8D4310023054A82F8B831D3
S21408450082F8933245B0BDE8F08F00BFD80F072079
S214084510900B0720B3F8C051052D40F2F882AB1F68
S2140845201B2B40F20B83222D00F07383232D00F003
S2140845309683242D00F0A283252D00F0B9832A2D1A
S21408454000F0CA832B2D00F0F3832C2D00F01E8478
S2140845502D2D00F04484262D00F06684272D00F0CB
S2140845607C84282D00F08C84292D00F0B3842E2D11
S21408457000F0C6842F2D00F0D984302D00F0ED848D
S214084580312D00F00785322D00F00D85332D00F013
S2140845902785342D00F03585352D00F07485362DA9
S2140845A000F06885372D00F0C585382D00F0B985F0
S2140845B0392D00F0AD853A2D00F0A1853B2D00F091
S2140845C083853C2D01F021803D2D01F015803E2D80
S2140845D001F000803F2D00F0F086402D00F0E386C5
S2140845E0412D00F0D686422D00F0CA86432D01F0F4
S2140845F0F182442D01F0E482452D01F0D382462D48
S21408460001F0C682472D01F0B982482D01F0AC8230
S214084610492D01F09F824A2D01F092824B2D01F020
S21408462085824C2D01F078824D2D01F06B824E2D3F
S21408463001F05E824F2D01F05182502D01F0448228
S214084640512D01F03782522D01F02A82532D01F0A8
S2140846501D82542D01F01082552D01F00382562D2F
S21408466001F0F681572D01F0E981582D01F0DC8123
S214084670592D01F0CF815A2D01F0C2815B2D01F032
S214084680B5815C2D01F0A8815D2D01F09B815E2D22
S21408469001F08E815F2D01F08181602D01F074811B
S2140846A0612D01F06781622D01F05A81632D00F0BB
S2140846B08787642D00F07A87652D00F06D87662D54
S2140846C000F05E87672D00F04F87682D00F0408762
S2140846D0692D00F031876A2D00F022876B2D00F0D7
S2140846E013876C2D00F006876D2D00F0F9866E2D69
S2140846F000F0EC866F2D00F0DD86702D00F0CE867B
S2140847007B2DCE4B00F0C1867C2D00F0B5867D2D26
S21408471000F0CE877E2D00F0C2877F2D00F0B6878A
S214084720802D00F099875A680192DA691F6A596ADB
S214084730986ADE6AD3F830A0D3F834B0D3F8388055
S214084740D3F83C90D3F840E0D3F844C01C68222D38
S21408475003949C680494DC6805941C6906945C6958
S21408476007949C6902949C6C0894DC6C09941C6DF4
S2140847700A945C6D0B949C6D0C94DC6D0D941C6E09
S2140847800E945C6E0F949C6E1094DC6E11941C6FE5
S21408479012945C6F13949C6F1494DC6F1594D3F882
S2140847A080401694D3F884401794D3F88840189419
S2140847B0D3F88C401994D3F890401A94D3F89440C0
S2140847C01B94D3F898401C94D3F89C401D94D3F8B7
S2140847D0A0401E94D3F8A4401F94D3F8A840209471
S2140847E0D3F8AC402194D3F8B0402294D3F8B44020
S2140847F02394D3F8B8402494D3F8BC402594D3F82F
S214084800C0402694D3F8C4402794D3F8C8402894C8
S214084810D3F8CC402994D3F8D0402A94D3F8D4407F
S2140848202B94D3F8E8402C94D3F8EC402D94D3F886
S214084830F0402E94D3F8F4402F94D3F8F8403094F0
S214084840D3F8FC403194D3F800413294D3F80441AD
S2140848503394D3F808413494D3F80C413594D3F8FC
S21408486010413694D3F814413794D3F81841389445
S214084870D3F81C413994D3F820413A94D3F824410C
S2140848803B94D3F828413C94B3F82C413D94B3F8B4
S2140848902E413E94B3F830413F94B3F832414094E9
S2140848A0B3F834414194B3F836414294644CA4F8C2
S2140848B0D851B3F838414394B3F83A4100F0C1816F
S2140848C0232D00F0D281242D00F0D481252D00F070
S2140848D0EB81262D00F01882272D00F02482282D43
S2140848E000F06C82292D00F075822A2D00F0978240
S2140848F02B2D00F0AD822C2D00F0DA822D2D00F045
S214084900E4822E2D00F004832F2D00F01883302D1E
S21408491000F02C83312D00F02F83322D00F05483C5
S214084920332D00F05783342D00F08883352D00F0A2
S2140849308B83362D00F0B083372D00F0B383382DE7
S21408494000F0BC83392D00F0B3833A2D00F00184C3
S2140849503B2D00F0F8833C2D00F03E853D2D00F001
S21408496035853E2D00F024873F2D00F01B87402D0F
S21408497000F01287412D00F00987422D00F00087CD
S214084980432D00F0F786442D00F0EE86452D00F006
S214084990E586462D00F0DC86472D00F0D386482DA8
S2140849A000F0CA86492D00F0C1864A2D00F0B88668
S2140849B04B2D00F0AF864C2D00F0A6864D2D00F04E
S2140849C09D864E2D00F0C6874F2D00F0BD87502DD2
S2140849D000F0B487512D00F0AB87522D00F0A28767
S2140849E0532D00F09987542D00F09087552D00F030
S2140849F08787562D00F07E87572D00F07587582D2F
S214084A0000F06687592D00F05D875A2D00F0548710
S214084A105B2D00F04B875C2D00F042875D2D00F083
S214084A2039875E2D00F030875F2D00F02787602DD0
S214084A3000F01E87612D00F0158703E0D80F0720C9
S214084A40900B0720622D00F00787632D00F0FE8686
S214084A50642D00F0F586652D00F0EC86662D00F0D6
S214084A60E186672D00F0D686682D00F0CB86692D86
S214084A7000F0C0866A2D00F0B5866B2D00F0AA8679
S214084A806C2D00F0A1866D2D00F098866E2D00F036
S214084A902F866F2D00F02486702D00F019867B2D4A
S214084AA000F00F867C2D00F0A4847D2D00F09A84FB
S214084AB07E2D7FF421ADD3F84C31AE4AC2F8D431FE
S214084AC01AE502280CBFAC4BAC4B186859689D68B1
S214084AD0DF681E695B69002A00F0A780012A00F0DB
S214084AE0A080022A00F0DC80032AA24B00F0EB80AC
S214084AF0042A0CBFC3F8D471C3F8D451FCE4A0F15F
S214084B000200B0FA80F09E4B40099847F4E4002D66
S214084B1073D0984B9749D3F8BC31012D964AC1F803
S214084B20D43100F0D780022D00F0FA80032D00F073
S214084B301E81042D0CBFD3609360DDE48D4A062DDC
S214084B40904BD2F8BC2100F08480072D00F0A0809E
S214084B50082D00F09F80092D00F0B3800A2D00F084
S214084B60D8800B2D00F0FC800C2D00F02C810D2D2C
S214084B7000F04D810E2D00F063810F2D00F0788136
S214084B80102D00F0A081112D00F0B881122D00F034
S214084B90CB81132D00F0DF81142D00F0F981152D3F
S214084BA000F01082162D00F02482172D00F03282B5
S214084BB0182D00F03182192D00F04C821A2D00F0C5
S214084BC057821B2D00F0D7821C2D00F0D8821D2D91
S214084BD000F0D3821E2D00F0D7821F2D00F0D18260
S214084BE0202D0CBFC3F88420C3F888200120644B0E
S214084BF0984781E4C3F8D4117EE4D3F8BC315E4A02
S214084C005C495360C1F8D43176E45A4BC3F8D451A2
S214084C1072E4584BD3F8BC215B4B5968DA610191B2
S214084C2084E5544BC3F8D40166E4524BC3F8D41158
S214084C3062E4504BC3F8D4615EE44E4BC3F8D471BB
S214084C405AE44C4BC3F8D42156E44A4BC3F8D4E193
S214084C5052E4DA60CAE7474BC3F8D4C14CE4454A85
S214084C60494BD2F8BC219A615DE5029B414AC2F8DD
S214084C70D43141E43F4BC3F8D4113DE43D4BD3F85F
S214084C80BC11414B5A68596201921F6ADA694FE5AE
S214084C909A60ABE75A61A9E7364BC3F8D4812BE490
S214084CA0344AC2F8D43127E4324BC3F8D47123E42B
S214084CB0304BD3F8BC71344B5A681F620192DA69DC
S214084CC035E51A6192E7C3F8D46115E4294BC3F8B1
S214084CD0D49111E413600FE4264BD3F8BC912A4B09
S214084CE05A68C3F83C9001921F6ADA69596A986A4A
S214084CF0DE6AD3F830A0D3F834B0D3F83880D3F8C7
S214084D0040E0D3F844C021E51A4BC3F8D461FFF756
S214084D10F3BBDA616AE7174BC3F8D4A1FFF7ECBB1D
S214084D205361FFF7E9BB134BC3F8D401FFF7E4BBA5
S214084D30104BD3F8BC81144B5A68C3F838800192DC
S214084D401F6ADA69596A986ADE6AD3F830A0D3F817
S214084D5034B0D3F83C90D3F840E0D3F844C0F5E438
S214084D609A6143E7034BC3F8D4B1FFF7C5BB136199
S214084D70FFF7C2BB900B07207411072030110720DD
S214084D80C536080048120720D80F0720A94BD3F8C5
S214084D90BCC1A94B5A68C3F844C001921F6ADA69B5
S214084DA0596A986ADE6AD3F830A0D3F834B0D3F8D4
S214084DB03880D3F83C90D3F840E0C7E49D4BC3F85E
S214084DC0D4B1FFF799BBDA6310E79A4BC3F8D4015E
S214084DD0FFF792BB974BC3F8D4A1FFF78DBB954B53
S214084DE0D3F8BCE1944B5A68C3F840E001921F6AB6
S214084DF0DA69596A986ADE6AD3F830A0D3F834B00C
S214084E00D3F83880D3F83C90D3F844C09EE49A632D
S214084E10ECE6029B874AC2F8D431FFF76DBB854B98
S214084E20C3F8D491FFF768BB824BD3F8BC61824BBA
S214084E305A68DE6201921F6ADA69596A986A79E4E2
S214084E405A64D3E6019B7B4AC2F8D431FFF754BBB9
S214084E50784BC3F8D481FFF74FBB764BD3F8BC0129
S214084E60754B5A68986201921F6ADA69596A60E453
S214084E701A64BBE6039B6F4AC2F8D431FFF73CBB03
S214084E806C4BD3F8BCB16C4B5A68C3F834B001927B
S214084E901F6ADA69596A986ADE6AD3F830A0D3F8C6
S214084EA03880D3F83C90D3F840E0D3F844C04DE4BB
S214084EB0604BC3F8D4C1FFF71FBB059B5D4AC2F819
S214084EC0D431FFF719BB5A6090E65A4BC3F8D4E1C1
S214084ED0FFF712BB574BD3F8BCA1574B5A68C3F819
S214084EE030A001921F6ADA69596A986ADE6A23E472
S214084EF0049B504AC2F8D431FFF7FEBA1A6075E62A
S214084F004C4BD3F8BC311A4601934B4B5A600CE411
S214084F10019B484AC2F8D431FFF7EEBA079B454AC8
S214084F20C2F8D431FFF7E8BADA645FE6424B414A82
S214084F305968D2F8BC2101911A60FFF7F6BB039BAB
S214084F403C4AC2F8D431FFF7D7BA069B394AC2F8AA
S214084F50D431FFF7D1BA9A6448E6374B354A5968D0
S214084F60D2F8BC210191DA60FFF7DFBB059B314A16
S214084F70C2F8D431FFF7C0BA049B2E4AC2F8D4311F
S214084F80FFF7BABA0B9B2B4AC2F8D431FFF7B4BA6C
S214084F90DA652BE6284B274A5968D2F8BC210191D6
S214084FA09A60FFF7C2BB244B224A5968D2F8BC2144
S214084FB001915A61FFF7B9BB0A9B1E4AC2F8D43161
S214084FC0FFF79ABA9A6511E6079B1A4AC2F8D431CF
S214084FD0FFF792BA069B174AC2F8D431FFF78CBA85
S214084FE0154B144A5968D2F8BC2101911A61FFF78B
S214084FF09CBB5A65FAE50D9B0E4AC2F8D431FFF7FA
S2140850007BBA0D4B0B4A5968D2F8BC2101915A65F8
S214085010FFF78BBB1A65E9E5DA66E7E50F9B054AF5
S214085020C2F8D431FFF768BA0C9B024AC2F8D431EA
S214085030FFF762BA900B0720D80F07200B9BB54ADC
S214085040C2F8D431FFF758BA0A9BB24AC2F8D4312C
S214085050FFF752BA9A66C9E5119BAE4AC2F8D43130
S214085060FFF74ABA0E9BAB4AC2F8D431FFF744BAE8
S2140850705A66BBE5A84BA74A5968D2F8BC210191E5
S214085080DA65FFF752BBA44BA24A5968D2F8BC218E
S21408509001911A65FFF749BB0D9B9E4AC2F8D431A9
S2140850A0FFF72ABA0C9B9B4AC2F8D431FFF724BAFA
S2140850B00E9B984AC2F8D431FFF71EBA0F9B954A42
S2140850C0C2F8D431FFF718BA934B924A5968D2F807
S2140850D0BC2101919A66FFF728BB089B8D4AC2F847
S2140850E0D431FFF709BA099B8A4AC2F8D431FFF7C8
S2140850F003BA129B874AC2F8D431FFF7FDB9864B2C
S214085100844A5968D2F8BC210191DA66FFF70DBBCC
S214085110814B804A5968D2F8BC2101911A66FFF77C
S21408512004BB7D4B7B4A5968D2F8BC2101915A666C
S214085130FFF7FBBA784B774A5968D2F8BC21019139
S2140851409A65FFF7F2BA109B724AC2F8D431FFF795
S214085150D3B9119B6F4AC2F8D431FFF7CDB9139B68
S2140851606C4AC2F8D431FFF7C7B9109B694AC2F82F
S214085170D431FFF7C1B91A6638E59A6736E51A6773
S21408518034E5C3F8802031E55A672FE5624B614A5B
S214085190D3F84431C2F8D431FFF7AEB95E4B5D4A56
S2140851A0D3F85031C2F8D431FFF7A6B95A4B594A4A
S2140851B0D3F84831C2F8D431FFF79EB9574B429816
S2140851C09847544BC3F8D401FFF796B9534B419808
S2140851D09847504BC3F8D401FFF78EB9369B4D4A13
S2140851E0C2F8D431FFF788B9379B4A4AC2F8D43197
S2140851F0FFF782B93A9B474AC2F8D431FFF77CB921
S2140852003C9B444AC2F8D431FFF776B9399B414AE9
S214085210C2F8D431FFF770B9389B3E4AC2F8D43189
S214085220FFF76AB9339B3B4AC2F8D431FFF764B933
S214085230349B384AC2F8D431FFF75EB9329B354AF8
S214085240C2F8D431FFF758B9309B324AC2F8D43185
S214085250FFF752B9319B2F4AC2F8D431FFF74CB941
S2140852602F9B2C4AC2F8D431FFF746B92D9B294A02
S214085270C2F8D431FFF740B92E9B264AC2F8D4317B
S214085280FFF73AB92C9B234AC2F8D431FFF734B952
S214085290289B204AC2F8D431FFF72EB9299B1D4A0D
S2140852A0C2F8D431FFF728B92A9B1A4AC2F8D43173
S2140852B0FFF722B92B9B174AC2F8D431FFF71CB95F
S2140852C0249B144AC2F8D431FFF716B9259B114A15
S2140852D0C2F8D431FFF710B9269B0E4AC2F8D4316B
S2140852E0FFF70AB9279B0B4AC2F8D431FFF704B96F
S2140852F0209B084AC2F8D431FFF7FEB8219B054A1E
S214085300C2F8D431FFF7F8B8229B024AC2F8D43163
S214085310FFF7F2B8900B0720D80F0720D9FA080035
S214085320239BB14AC2F8D431FFF7E6B81C9BAE4AB5
S214085330C2F8D431FFF7E0B81D9BAB4AC2F8D431A7
S214085340FFF7DAB81E9BA84AC2F8D431FFF7D4B8DC
S2140853501F9BA54AC2F8D431FFF7CEB8189BA24ABD
S214085360C2F8D431FFF7C8B8199B9F4AC2F8D4319F
S214085370FFF7C2B81A9B9C4AC2F8D431FFF7BCB8EC
S2140853809A4B994A5968D2F8BC210191DA67FFF717
S214085390CCB9964B944A5968D2F8BC210191C3F807
S2140853A08020FFF7C2B9914B8F4A5968D2F8BC21C2
S2140853B00191C3F88420FFF7B8B98C4B8A4A59681C
S2140853C0D2F8BC2101919A64FFF7AFB9129B864ABE
S2140853D0C2F8D431FFF790B8139B834AC2F8D43189
S2140853E0FFF78AB8D3F844317F4AC2F8D431FFF7BA
S2140853F083B8D3F850317C4AC2F8D431FFF77CB86A
S214085400359B794AC2F8D431FFF776B8784B43987B
S2140854109847754BC3F8D401FFF76EB8744B20460F
S2140854209847714BC3F8D401FFF766B8704B40989D
S21408543098476D4BC3F8D401FFF75EB86C4B3F989E
S2140854409847694BC3F8D401FFF756B8684B3E989F
S2140854509847654BC3F8D401FFF74EB8644B3D98A0
S2140854609847614BC3F8D401FFF746B83B9B5E4AA2
S214085470C2F8D431FFF740B85B4A5968D2F8BC2165
S2140854800191C3F85021FFF750B9574A5968D2F826
S214085490BC210191C3F84821FFF747B9524A554B3A
S2140854A0D2F8BC019847514B5A68A3F836010192C6
S2140854B0FFF73BB94C4A4F4BD2F8BC0198474B4BC9
S2140854C05A68A3F834010192FFF72FB9474B464AAA
S2140854D05968D2F8BC210191C3F81021FFF725B905
S2140854E0424B414A5968D2F8BC210191C3F81421AD
S2140854F0FFF71BB93D4B3C4A5968D2F8BC210191CD
S214085500C3F80C21FFF711B9374A3A4BD2F8BC0159
S2140855109847364B5A68A3F83A010192FFF705B93F
S214085520314A344BD2F8BC019847304B5A68A3F836
S21408553038010192FFF7F9B82B4A2E4BD2F8BC0176
S21408554098472A4B5A68A3F832010192FFF7EDB83C
S214085550254A284BD2F8BC019847244B5A68A3F82A
S21408556030010192FFF7E1B81F4A224BD2F8BC017E
S21408557098471E4B5A68A3F82E010192FFF7D5B834
S214085580194A1C4BD2F8BC019847184B5A68A3F81E
S2140855902C010192FFF7C9B8144B134A5968D2F880
S2140855A0BC210191C3F82421FFF7BFB80F4B0E4A60
S2140855B05968D2F8BC210191C3F82021FFF7B5B885
S2140855C00A4B094A5968D2F8BC210191C3F8282128
S2140855D0FFF7ABB8054B044A5968D2F8BC210191CD
S2140855E0DA64FFF7A2B800BF900B0720D80F072091
S2140855F0D9FA080041FF0800B84BB94A5968D2F8EA
S214085600BC2101911A67FFF790B8B44BB44A5968A1
S214085610D2F8BC2101915A67FFF787B8179BB04AA2
S214085620C2F8D431FEF768BF1B9BAD4AC2F8D43126
S214085630FEF762BF149BAA4AC2F8D431FEF75CBFD5
S214085640159BA74AC2F8D431FEF756BF169BA44A44
S214085650C2F8D431FEF750BFA14C5A68D4F8BC4102
S21408566001921F6ADA69596A986ADE6AD3F830A026
S214085670D3F834B0D3F83880D3F83C90D3F840E069
S214085680D3F844C0C3F83C41FFF760B8944A596859
S214085690D2F8BC210191C3F84021FFF746B8904ADA
S2140856A05968D2F8BC210191C3F84C21FFF73DB8E0
S2140856B08B4A5968D2F8BC210191C3F84421FFF7F8
S2140856C034B8D3F84831864AC2F8D431FEF714BF46
S2140856D0844B42989847824BC3F8D401FEF70CBF18
S2140856E0804B419898477E4BC3F8D401FEF704BF19
S2140856F0369B7B4AC2F8D431FEF7FEBE229B784A18
S214085700C2F8D431FEF7F8BE239B754AC2F8D431E6
S214085710FEF7F2BE1C9B724AC2F8D431FEF7ECBE06
S2140857201D9B6F4AC2F8D431FEF7E6BE1E9B6C4A34
S214085730C2F8D431FEF7E0BE1F9B694AC2F8D431DE
S214085740FEF7DABE189B664AC2F8D431FEF7D4BE16
S214085750199B634AC2F8D431FEF7CEBE1A9B604A3C
S214085760C2F8D431FEF7C8BE1B9B5D4AC2F8D431D6
S214085770FEF7C2BE149B5A4AC2F8D431FEF7BCBE26
S214085780159B574AC2F8D431FEF7B6BE169B544A44
S214085790C2F8D431FEF7B0BE179B514AC2F8D431CE
S2140857A0FEF7AABE089B4E4AC2F8D431FEF7A4BE3E
S2140857B0099B4B4AC2F8D431FEF79EBE379B484A2F
S2140857C0C2F8D431FEF798BE359B454AC2F8D431A4
S2140857D0FEF792BE434B20469847414BC3F8D40188
S2140857E0FEF78ABE3F4B439898473D4BC3F8D40113
S2140857F0FEF782BE3B4B40989847394BC3F8D40116
S214085800FEF77ABE374B3F989847354BC3F8D40116
S214085810FEF772BE334B3E989847314BC3F8D40117
S214085820FEF76ABE2F4B3D9898472D4BC3F8D40118
S214085830FEF762BE3B9B2A4AC2F8D431FEF75CBE2E
S2140858403A9B274AC2F8D431FEF756BE3C9B244AF8
S214085850C2F8D431FEF750BE399B214AC2F8D4317B
S214085860FEF74ABE389B1E4AC2F8D431FEF744BE3D
S214085870339B1B4AC2F8D431FEF73EBE349B184A07
S214085880C2F8D431FEF738BE329B154AC2F8D43176
S214085890FEF732BE309B124AC2F8D431FEF72CBE51
S2140858A0319B0F4AC2F8D431FEF726BE2F9B0C4A0E
S2140858B0C2F8D431FEF720BE2D9B094AC2F8D4316F
S2140858C0FEF71ABE2E9B064AC2F8D431FEF714BE5F
